:020000040000FA
:10000000A0270020150300001D0300001F030000AF
:10001000210300002303000025030000000000006E
:1000200000000000000000000000000027030000A6
:1000300029030000000000002B0300002D03000036
:100040002F0300002F030000ED1B000031190000FA
:100050002F0300002F0300002F0300002F030000D8
:100060002F0300002F0300002F0300002F030000C8
:100070002F0300002F0300002F0300002F030000B8
:100080002F0300002F0300002F0300002F030000A8
:100090002F0300002F0300002F0300002F03000098
:1000A0002F0300002F0300002F0300002F03000088
:1000B0002F0300002F0300000000000000000000DC
:1000C0002F0300002F0300002F0300002F03000068
:1000D0002F0300002F030000B50F000000000000F8
:1000E0000000000000000000000000000000000010
:1000F0000000000000000000000000000000000000
:1001000000000000000000000000000000000000EF
:1001100000000000000000000000000000000000DF
:1001200000000000000000000000000000000000CF
:1001300000000000000000000000000000000000BF
:1001400000000000000000000000000000000000AF
:10015000000000000000000000000000000000009F
:10016000000000000000000000000000000000008F
:10017000000000000000000000000000000000007F
:10018000000000000000000000000000000000006F
:10019000000000000000000000000000000000005F
:1001A000000000000000000000000000000000004F
:1001B000000000000000000000000000000000003F
:1001C000000000000000000000000000000000002F
:1001D000000000000000000000000000000000001F
:1001E000000000000000000000000000000000000F
:1001F00000000000000000000000000000000000FF
:10020000DFF80CD000F0D8FA00480047813C00002D
:10021000A027002000B583B002900091019244F223
:10022000010071466A4601F03BFD03B000BD0000CD
:1002300030B4044654E8000F0D4644E80053002B48
:10024000F8D1156030BC704730B4044654E8000F54
:1002500040EA010544E80053002BF7D1156030BC9B
:10026000704730B4044654E8000F00EA010544E842
:100270000053002BF7D1156030BC704730B40446F2
:1002800054E8000F80EA010544E80053002BF7D141
:10029000156030BC704730B4044654E8000F00EBE2
:1002A000010544E80053002BF7D1156030BC7047BE
:1002B00030B4044654E8000FA0EB010544E80053B5
:1002C000002BF7D1156030BC704770B404464FF076
:1002D000000054E8006F0D68AE4207BF44E80023F9
:1002E000012044E800630E60002B1CBF0020F0E7F3
:1002F00070BC704730B4044654E8000F88422CBFED
:10030000451A054644E80053002BF5D1156030BC72
:10031000704700000648804706480047FEE7FEE7B2
:10032000FEE7FEE7FEE7FEE7FEE7FEE7FEE7FEE7A5
:1003300055190000010200002DE9F04190462DED15
:10034000028B0D46044696089FED608A6FF00047C9
:100350006ED000BFB4EC010A20EE080AB5EEC00A68
:10036000F1EE10FACCBFF6EE000AFEEE000A30EE17
:10037000800A10EE100A00F0DAF8CA17B1EBE07F3D
:1003800018BF82EA070045F8040BB4EC010A20EE1E
:10039000080AB5EEC00AF1EE10FACCBFF6EE000A7C
:1003A000FEEE000A30EE800A10EE100A00F0BFF8F0
:1003B000CA17B1EBE07F18BF82EA070045F8040BCB
:1003C000B4EC010A20EE080AB5EEC00AF1EE10FA0C
:1003D000CCBFF6EE000AFEEE000A30EE800A10EE08
:1003E000100A00F0A4F8CA17B1EBE07F18BF82EA48
:1003F000070045F8040BB4EC010A20EE080AB5EE3C
:10040000C00AF1EE10FACCBFF6EE000AFEEE000ACA
:1004100030EE800A10EE100A00F089F8CA17B1EB2E
:10042000E07F18BF82EA070045F8040B761E91D1E1
:1004300018F0030604BFBDEC028BBDE8F081B6F1F5
:10044000004F22D2002E1CDDB4EC010A20EE080A77
:10045000B5EEC00AF1EE10FACCBFF6EE000AFEEEE1
:10046000000A30EE800A10EE100A00F060F8CA1799
:10047000B1EBE07F18BF82EA070045F8040B761E57
:10048000E2D1BDEC028BBDE8F081B4EC010A20EEB4
:10049000080AB5EEC00AF1EE10FACCBFF6EE000A7B
:1004A000FEEE000A30EE800A10EE100A00F03FF86F
:1004B000CA17B1EBE07F18BF82EA070045F8040BCA
:1004C000761EE2D1BDEC028BBDE8F0810000004F4A
:1004D00000487047C068000040EA01039B0703D052
:1004E00009E008C9121F08C0042AFAD203E011F873
:1004F000013B00F8013B521EF9D27047D2B201E035
:1005000000F8012B491EFBD270470022F6E710B518
:1005100013460A4604461946FFF7F0FF204610BD71
:10052000421C10F8011B0029FBD1801A704710B53E
:1005300000F0004420F00040C20DC0F3160040F46B
:1005400000007F2A02DA0020014610BD0021962A11
:1005500003DCC2F19602D04002E0963A00F037F890
:10056000002CF2D00023D0EB030063EB010110BD9F
:1005700000F0004230F000400AD0C10D01F560717A
:10058000C0F3160042EA0151C20840071143704708
:1005900000200146704701F0004330B421F00041D3
:1005A00050EA010206D00A0DA2F56072C1F31301F0
:1005B000002A02DC30BC00207047440F44EAC1042A
:1005C000C100E01830BC00EBC25000F00FB8202A88
:1005D00004DB203A00FA02F1002070479140C2F19A
:1005E000200320FA03F31943904070470029A8BF65
:1005F0007047401C490008BF20F00100704710B44C
:10060000B0FA80FC00FA0CF050EA010404BF10BC00
:10061000704749B1CCF1200421FA04F411FA0CF12D
:1006200018BF012121430843A3EB0C01CB1D4FEA66
:1006300000614FEA102042BF002010BC704700EB61
:10064000C35010440029A4BF10BC7047401C49008F
:1006500008BF20F0010010BC704710B5141E73F1E4
:10066000000408DA401C41F1000192185B411A4372
:1006700001D120F0010010BD2DE9F04D92469B46BE
:1006800011B1B1FA81F202E0B0FA80F22032904664
:10069000FFF79DFF04460F4640EA0A0041EA0B01BE
:1006A00053465A46084313D0114653EA010019D065
:1006B000C8F14002504600F091F805460E465046FB
:1006C00059464246FFF783FF084305D0012004E066
:1006D00020463946BDE8F08D0020054346EAE07625
:1006E0002C4337430A986305E40AA0EB0800002274
:1006F000FD0A44EA47540A3002D500200146E9E7E2
:10070000010510196941DDE9084500196941BDE895
:10071000F04DA2E72DE9F04D00231A461B1A8A413D
:1007200003DB00200146BDE8F08DC1F30A52C1F39E
:10073000130141F480154FF0000BD10702D10018CE
:100740006D41521E0027044640F2FF11384601EB6E
:10075000620A3E468046024600204FF4801100F0B7
:100760003DF8C2197141BB1846EB0100B4EB030C14
:1007700075EB000C04D3E41A65EB000517460E4632
:10078000241908F101006D4180463428E3DDF91990
:1007900046EB0600091BA84103D24FF0FF32134677
:1007A00001E0002213461BEB070046EB0A51BDE8AF
:1007B000F04DFFF752BF0000064C074D06E0E06821
:1007C00040F0010394E8070098471034AC42F6D398
:1007D000FFF71AFD646D0000846D0000202A04DB21
:1007E000203A21FA02F00021704721FA02F3D040AA
:1007F000C2F1200291400843194670472DE9FE439B
:1008000005460E46174698464FF000090020019015
:10081000029000248DF804600120034601AA2946B5
:1008200000900C4803F09EFC8146434601AA2946ED
:10083000084803F085FC814600BF04E001A8005D84
:100840003855601CC4B24445F8DB4FFA89F0BDE866
:10085000FE830000E06500002DE9FE4306460F46DA
:1008600090461D464FF0000900248DF8047000BF2B
:1008700005E018F8041001AA601C1154C4B2AC427F
:10088000F7DB00200090681CC3B201AA314604487F
:1008900003F068FC81464FFA89F0BDE8FE83000052
:1008A000E06500000548064988600648C8600648BB
:1008B00048611820087100207047000059080000A6
:1008C000E8000020FD070000CD08000010B5044638
:1008D000204603F0F5FB10BD2DE9FE4305460E460C
:1008E000174698464FF0000900200190029000241E
:1008F0008DF804600120034601AA294600900C48A7
:1009000003F030FC8146434601AA2946084803F01B
:1009100017FC814600BF04E001A8005D3855601C4B
:10092000C4B24445F8DB4FFA89F0BDE8FE8300000D
:10093000E06500002DE9FE4306460F4690461D4641
:100940004FF0000900248DF8047000BF05E018F88E
:10095000041001AA601C1154C4B2AC42F7DB0020A1
:100960000090681CC3B201AA3146044803F0FAFBA8
:1009700081464FFA89F0BDE8FE830000E065000083
:100980000548064988600648C8600648086168202E
:100990004870002070470000350900002001002049
:1009A000D9080000A909000010B50446204603F04C
:1009B00087FB10BD2DE9FE4305460E4617469846B7
:1009C0004FF0000900200190029000248DF804608F
:1009D0000120034601AA294600900C4803F0C2FBFF
:1009E0008146434601AA2946084803F0A9FB8146EF
:1009F00000BF04E001A8005D3855601CC4B2444546
:100A0000F8DB4FFA89F0BDE8FE830000E0650000E6
:100A10002DE9FE4306460F4690461D464FF000095D
:100A200000248DF8047000BF05E018F8041001AA36
:100A3000601C1154C4B2AC42F7DB00200090681C6B
:100A4000C3B201AA3146044803F08CFB81464FFA39
:100A500089F0BDE8FE830000E06500000548064916
:100A60004860064888600648C8601020487000202A
:100A700070470000110A000000010020B5090000C5
:100A8000850A000010B50446204603F019FB10BD8E
:100A90002DE9FE4F04463C4D6E0C2F4647F6FF787D
:100AA0004FF0000A4FF000091CB909F0FF00BDE843
:100AB000FE8F2AE0684602F0A5FA48444FFA80F912
:100AC000BDF90000A84201DDBDF90050BDF90000EC
:100AD000B04201DABDF90060BDF90200B84201DDA3
:100AE000BDF90270BDF90200404501DABDF902808E
:100AF0000AF1010080B28246B0F5487F03DA0F2088
:100B000003F0DEFA01E0002401E0002CD2D100BFA6
:100B1000B7EE000A1D4880ED000AA81B00EE100A7F
:100B2000F8EEC00AA7EB080000EE100AB8EEC00A03
:100B300080EE801A164880ED001AA81900EE100AFF
:100B4000B8EEC00AFEEE000A20EE200A0F48D0EDF3
:100B5000000A20EE200A0F4880ED000A07EB08008B
:100B600000EE100AB8EEC00AFEEE000A20EE200ADF
:100B70000748D0ED000A20EE200A074880ED000A61
:100B800009F0FF0093E700000080FFFF180000203D
:100B900020000020140000201C00002038B5002494
:100BA00001210C2003F0A9FC01210C2003F0A5FC7D
:100BB00001211F2003F0A1FCFFF774FEFFF74EFF99
:100BC000FFF7DEFE2A4801F0DDFD204444B229484B
:100BD00001F006FA204444B2274802F015F92044F7
:100BE00044B200BF25463DB100BF24A24FF4697155
:100BF0002846FFF70FFB00BF00BF1F4800781C49C5
:100C000000900B781B494A782549264D491BC90895
:100C1000032545EA014024A103F098FF002001F0DC
:100C2000BFFB204444B2002001F082FE204444B2C5
:100C3000002002F087FA204444B20D2001F0DEFAD1
:100C4000204444B2052001F039FC204444B2012084
:100C500001F028FE204444B2012001F0A3FF20440B
:100C600044B2072002F042FA204444B2E0B238BD58
:100C700020010020E8000020000100202E2E5C2E24
:100C80002E5C2E2E5C424D583035355C626D7830CE
:100C900035355F737570706F72742E6300000000DD
:100CA000B46D0000946D00000D0A626D61327832FF
:100CB0005F49443A30782530325809626D673136E1
:100CC000305F49443A30782530325809626D6D30D2
:100CD00035305F49443A3078253032580000000002
:100CE00000B52DED088B89B09FED610AB0EE408A0A
:100CF0009FED5F0AF0EE408A06A801F09DFC04A873
:100D000001F09CF901A802F07DF9BDF9040000EEA4
:100D1000100AB8EEC00A5748D0ED000A30EE200A9B
:100D2000B0EE408ABDF9060000EE100AF8EEC00AE7
:100D3000514890ED001A514890ED000A00EE810AEA
:100D4000F0EE408ABDF9140000EE100AB8EEC00AB9
:100D5000F1EE000A20EE200ADFED490A80EE201AAB
:100D6000B0EE419ABDF9120000EE100AB8EEC00ACA
:100D7000F1EE000A20EE200ADFED410A80EE201A93
:100D8000F0EE419ABDF9100000EE100AB8EEC00A6C
:100D9000F1EE000A20EE200ADFED390A80EE201A7B
:100DA000B0EE41AABDF91C0000EE100AB8EEC00A70
:100DB000DFED340A20EE200ADFED330A20EE200AB0
:100DC000DFED320A80EE201AF0EE41AABDF91A00DA
:100DD00000EE100AB8EEC00ADFED2A0A20EE200A63
:100DE000DFED290A20EE200ADFED280A80EE201A26
:100DF000B0EE41BABDF9180000EE100AB8EEC00A14
:100E0000DFED200A20EE200ADFED1F0A20EE200A87
:100E1000DFED1E0A80EE201AF0EE41BABDF908009F
:100E200000EE100AB8EEC00ADFED190A20EE200A23
:100E3000B0EE404A9FED160A28EE800AF0EE403AE6
:100E40009FED130A28EE000AB0EE403AF0EE492A70
:100E5000B0EE692AF0EE4A1AB0EE6A1AF0EE4B0ACA
:100E6000B0EE6B0A00F0B4F809B0BDEC088B00BD21
:100E70000000000014000020200000201C000020C2
:100E80000000004598F98E3C00007A440048EE4688
:100E90009A99993E00B52DED068B85B002A801F018
:100EA000CBFB684601F0CAF8BDF9040000EE100A59
:100EB000B8EEC00AF1EE000A20EE200ADFED390A92
:100EC00080EE201AB0EE418ABDF9020000EE100A51
:100ED000B8EEC00AF1EE000A20EE200ADFED310A7A
:100EE00080EE201AF0EE418ABDF9000000EE100AF3
:100EF000B8EEC00AF1EE000A20EE200ADFED290A62
:100F000080EE201AB0EE419ABDF90C0000EE100AF6
:100F1000B8EEC00ADFED240A20EE200ADFED230A36
:100F200020EE200ADFED220A80EE201AF0EE419A30
:100F3000BDF90A0000EE100AB8EEC00ADFED1A0A89
:100F400020EE200ADFED190A20EE200ADFED180A54
:100F500080EE201AB0EE41AABDF9080000EE100A9A
:100F6000B8EEC00ADFED100A20EE200ADFED0F0A0E
:100F700020EE200ADFED0E0A80EE201AF0EE41AAE4
:100F8000F0EE482AB0EE682AF0EE491AB0EE691A7F
:100F9000F0EE4A0AB0EE6A0A00F028FB05B0BDEC9C
:100FA000068B00BD0000004598F98E3C00007A4495
:100FB0000048EE460549096801F1400000BFF1EE26
:100FC000101A016821F09F010160704738EF00E0BE
:100FD00000B52DED108B99B0B0EE40AAF0EE60AAEE
:100FE000B0EE41BAF0EE61CAF0EE42BAB0EE62CABB
:100FF000F0EE439AB0EE638AF0EE448AF5EEC09AC2
:10100000F1EE10FA1BD1B5EEC08AF1EE10FA16D14E
:10101000F5EEC08AF1EE10FA11D1F0EE4C2AB0EEE6
:101020006B2AF0EE6C1AB0EE4B1AF0EE6A0AB0EED4
:101030004A0A00F0DBFA19B0BDEC108B00BDF5EEEA
:10104000C0CAF1EE10FA09D1F5EEC0BAF1EE10FA0D
:1010500004D1B5EEC0CAF1EE10FA7CD06CEEAC0A49
:101060004BEEAB0A4CEE0C0AB0EE600A02F062FDE9
:10107000B0EE409A2CEE890AF0EE40CA2BEE890AB7
:10108000F0EE40BA2CEE090AB0EE40CA69EEA90AA9
:1010900048EE080A48EEA80AB0EE600A02F04AFDDF
:1010A000B0EE409A29EE890AF0EE409A28EE090A3D
:1010B000B0EE408A28EE890AF0EE408AFE4890EDB4
:1010C000000AD0ED000A20EE200A8DED170A90EDFF
:1010D000000AFA48D0ED000A20EE20EAF64890ED2A
:1010E000000AF748D0ED000A20EE20DAF24890ED31
:1010F000000AF448D0ED000A20EE200A8DED160A11
:10110000EE4890ED000AD0ED000A20EE200A8DEDA9
:10111000150A90ED000AEA48D0ED000A20EE200AF8
:101120008DED140AE54890ED000AE648D0ED000A7E
:1011300060EE20DAE24890ED000AD0ED000A60EEA1
:1011400020EA90ED000ADF48D0ED000A20EE20FAF8
:1011500090ED000A00E074E1D0ED000A60EE20FAA4
:10116000B6EE000A30EE6E0A30EE6F0A20EE291A53
:101170009DED140ADDED160A70EE600AB0EE410A2C
:1011800008EE200A7DEE8D0A08EEA00AF0EE000AB5
:1011900020EE200A8DED130A9DED140ADDED160AEE
:1011A00030EE200A60EE290A9DED150AB6EE001A0F
:1011B00031EE400A30EE6F1AB0EE600A08EE010A16
:1011C0007FEE4E0A08EEA00AF0EE000A20EE200A9A
:1011D0008DED120A9DED130A60EE000A9DED120AD4
:1011E00040EE000A10EE901A0846FFF7C1F9CDE96B
:1011F00000019DED000B00F001FD8DED020B9DED5A
:10120000020B51EC100BFFF7C6F911903DEECD0A21
:1012100020EE290A7FEE0E0A08EE200ADDED150AFF
:10122000B6EE001A71EE600A70EEEE0A08EEA00A41
:10123000F0EE000A20EE200A8DED100A3DEECD0AF8
:101240008DED0F0A3EEE0F0A8DED0E0A9DED170A89
:10125000F6EE000A30EE600A30EE2F0A8DED0D0A30
:10126000B6EE000A30EE6E0A70EE6F0A9DED110ABE
:1012700020EE800A3DEECD1ADDED100A00EE810A67
:101280008DED0C0A9DED140ADDED160A70EE600A74
:101290009DED110A20EE800A3EEE0F1ADDED100AD8
:1012A00000EE810A8DED0B0A7DEE2D0A9DED110AEF
:1012B00020EE801A9DED150AF6EE000A30EEC00A07
:1012C00070EE6E1ADDED100AB0EE410A00EEA10AD2
:1012D0008DED0A0A9DED0D0A6BEE800A9DED0E0A5A
:1012E0004CEE400A9DED0A0A28EE001A9DED0B0A0D
:1012F00008EEC01A30EE810A8DED090A9DED0F0A45
:101300006CEE000A9DED0D0A4CEEC00A9DED0C0A34
:1013100028EE801A9DED0A0A09EEC01A30EE810A05
:101320008DED080A9DED0E0A6CEE800A9DED0F0A08
:101330004BEEC00A9DED0B0A29EE801A9DED0C0ABA
:1013400008EE401A30EE810A8DED070A5E4890EDF6
:10135000000AB5EEC00AF1EE10FA44DDD0ED000A45
:101360009DED090A60EE800A584890ED000A9FED55
:10137000581A00EE810A80ED000A5348D0ED000AA9
:101380009DED080A60EE800A524890ED000A9FED3C
:10139000501A00EE810A80ED000A4B48D0ED000A99
:1013A0009DED070A60EE800A4B4890ED000A9FED24
:1013B000481A00EE810A80ED000A444890ED000AC8
:1013C0003AEE000AB0EE40AA424890ED000A3AEE2A
:1013D000800AF0EE40AA404890ED000A3BEE000A79
:1013E000B0EE40BA0EE09FED3D0A384880ED000AAD
:1013F0009FED3A0A374880ED000A9FED380A3648DB
:1014000080ED000A364890ED001A9DED090AF0EED5
:101410004A0A41EE000AB0EE60AA90ED001A9DED76
:10142000080AF0EE6A0A41EE000AF0EE60AA90EDBA
:10143000001A9DED070AF0EE4B0A41EE000AB0EEED
:1014400060BA9FED280A2AEE000AB0EE40AA9FED8E
:10145000250A2AEE800AF0EE40AA9FED220A2BEE22
:10146000000AB0EE40BA144890ED000A8DED060A6D
:10147000124890ED000A8DED050A114890ED000A22
:101480008DED040A9DED050AB1EE400A60EE0A0AF0
:101490009DED040A40EE6A0A0A4890ED000A40EE0B
:1014A0004B0A054890ED000A30EE800A80ED000AF4
:1014B0009DED060A18E000002C00002030000020FE
:1014C0003400002038000020280000203C000020CC
:1014D0000AD7233C40000020440000200000000008
:1014E000240000200AD7A33B60EE0A0A9DED040AFF
:1014F00040EE0B0A394890ED000A40EE6A0A38487F
:1015000090ED000A30EE800A80ED000A9DED060A9B
:1015100060EE2A0A9DED050A40EE4B0A2F4890ED39
:10152000000A40EE0A0A2F4890ED000A30EE800AC9
:1015300080ED000A9DED060A20EE0B0ADDED050A9E
:1015400000EEAA0ADDED040A00EECA0A2348D0ED37
:10155000000A30EE200A80ED000A2348D0ED000A90
:1015600090ED001A60EE810A1D4890ED001AD0ED52
:10157000001A41EE210A1B4890ED001AD0ED001A26
:1015800041EE210A154890ED001AD0ED001A41EE07
:10159000210AB0EE600A02F0CDFAB0EE409A12488D
:1015A00090ED000A20EE090A80ED000A0C4890ED4B
:1015B000000A20EE090A80ED000A0A4890ED000AB0
:1015C00020EE090A80ED000A044890ED000A20EEA2
:1015D000090A80ED000A00BF2DE500003800002058
:1015E00030000020340000202C00002000B52DED3C
:1015F000068BB0EE403AF0EE603AB0EE414AF0EEC3
:10160000615AF0EE424AB0EE625AF5EEC05AF1EE7F
:1016100010FA09D1F5EEC04AF1EE10FA04D1B5EE98
:10162000C05AF1EE10FA7DD065EEA50A44EEA40A88
:1016300045EE050AB0EE600A02F07CFAF0EE402AB0
:1016400025EEA20AF0EE405A24EEA20AF0EE404A3D
:1016500025EE220AB0EE405AA94890ED000AA948AA
:10166000D0ED000A20EE200AA748D0ED000AA748D6
:1016700090ED001AF0EE407A40EEC17AA24890ED6B
:10168000000A9F48D0ED000A20EE200A9F48D0EDC6
:10169000000A9C4890ED001AB0EE408A00EE818A64
:1016A0009948D0ED000A90ED001AB6EE000A10EE4F
:1016B000810A9448D0ED000A90ED001AF0EE408ABD
:1016C00040EE818A24EEA80AB0EE409A05EE489AD0
:1016D00025EE270AF0EE409A45EEE89A25EE880AB4
:1016E000B0EE40AA04EEE7AA894890ED000AB5EEF4
:1016F000C00AF1EE10FA40DD90ED000A60EE090A32
:10170000844890ED000A9FED841A00EE810A80ED76
:10171000000A7F4890ED000A60EE290A7F4890EDAC
:10172000000A00E051E09FED7C1A00EE810A80ED96
:10173000000A774890ED000A60EE0A0A784890EDBA
:10174000000A9FED751A00EE810A80ED000A7148CB
:1017500090ED000A33EE000AB0EE403A6F4890ED8B
:10176000000A33EE800AF0EE403A6D4890ED000A30
:1017700034EE000AB0EE404A0EE09FED6A0A65487A
:1017800080ED000A9FED670A644880ED000A9FED36
:10179000650A634880ED000A6348D0ED000AB0EEA8
:1017A000430A00EE890AB0EE403AD0ED000AB0EEEE
:1017B000630A00EEA90AF0EE403AD0ED000AB0EE5E
:1017C000440A00EE8A0AB0EE404A9FED580A23EE22
:1017D000000AB0EE403A9FED550A23EE800AF0EE83
:1017E000403A9FED520A24EE000AB0EE404A4648C5
:1017F00090ED006A4248D0ED006A444890ED007ACE
:10180000B1EE660A20EE030A07EE630A3D48D0ED0A
:10181000000A00EEC40A3C48D0ED000A30EE200A6F
:1018200080ED000A26EE030A07EE040A3548D0EDE3
:10183000000A00EEE30A3248D0ED000A30EE200A3A
:1018400080ED000A26EE230A06EEC40A2D48D0EDEC
:10185000000A00EE830A2D48D0ED000A30EE200A7F
:1018600080ED000A26EE040A06EEA30A07EE430AFC
:101870002448D0ED000A30EE200A80ED000A22480C
:10188000D0ED000A90ED001A60EE810A1C4890ED40
:10189000001AD0ED001A41EE210A1C4890ED001A02
:1018A000D0ED001A41EE210A164890ED001AD0ED55
:1018B000001A41EE210AB0EE600A02F03BF9F0EEA8
:1018C000402A114890ED000A20EE220A80ED000A1D
:1018D0000B4890ED000A20EE220A80ED000A0B482A
:1018E00090ED000A20EE220A80ED000A054890EDF6
:1018F000000A20EE220A80ED000ABDEC068B00BD36
:1019000030000020380000202C000020340000208F
:10191000280000203C0000200AD7233C4000002083
:101920004400002000000000240000200AD7A33B50
:1019300010B50249024804F069F910BD34010020D5
:101940000030004001480249086070470090D00311
:10195000E000002010B501F097FE28B19248008801
:10196000C0F304209149086001F0E2FE10B19048F4
:101970009049486701F004FF30B18B48E0380068B7
:10198000C0F342308C49086001F024FF28B18B4835
:10199000006820F080708949086001F033FF48B189
:1019A0000020874908604FF08041C1F8100182494A
:1019B000091F086001F050FF18B103207E4964310F
:1019C000086001F061FF68B105207E4908600120D0
:1019D0007C497831086000207A49083108603F204E
:1019E000091F086001F068FF002855D06E48E030FC
:1019F0000068754908606C48E4300068091D08609B
:101A00006948E8300068091D08606748EC300068E4
:101A1000091D08606448F0300068091D08606248CC
:101A2000F4300068091D08605F48F83000686649B6
:101A3000203108605C48FC300068091D086063487C
:101A40000068091D08606148001D0068091D0860E4
:101A50005E4808300068091D08605C480C3000686A
:101A6000091D086059481030006857494031086026
:101A7000564814300068091D086054481830006842
:101A8000091D086051481C300068091D08604F4856
:101A900020300068091D086001F0CCFD30B14248DB
:101AA000CC38006800F04F004949086001F016FE8C
:101AB00040B14848006800F0010018B16FF0010023
:101AC0004449086001F04CFE28B14348006840F4E6
:101AD00080604149086039487438006840F47000FB
:101AE00036497439086000BF00BF00BFBFF34F8F95
:101AF00000BF00BF00BF00BF00BF00BFBFF36F8FBC
:101B000000BF00BF00BF3548006800F0004028B9A2
:101B10003248001D006800F00040E8B30120304961
:101B2000086000BF2F4800680028FBD015202B4913
:101B3000086000BF2B4800680028FBD0152127480B
:101B4000001D016000BF274800680028FBD000206E
:101B50002349086000BF234800680028FBD000BF6D
:101B600000BF00BF00BF00BFBFF34F8F00BF00BF6B
:101B700000BF1248F038006800F4E0601A490843DA
:101B8000001D0E49F039086000BF00BF00BFBFF361
:101B90004F8F00BF00BF00E003E000BF00BF00BFE9
:101BA000FDE7FFF7CFFE10BD2403001040350140D4
:101BB0000DF0ADBA00C007403C050040FCED00E070
:101BC0000C0100401056004020C5004024040010C5
:101BD000E40E0040000400403C17004000120010DA
:101BE00004E5014000E401400000FA0510B5024997
:101BF0000868804710BD00006400002000B52DED8E
:101C0000048BB0EE409AF0EE609A83B051EC190B61
:101C1000FEF780FD41EC180B18EE100A18EE901A32
:101C20008DED008B002818BF0120084320F00040F4
:101C3000C0F17F6000F1E040C00F14D019EE101A1F
:101C400019EE900A8DED009B002918BF0121084371
:101C500020F00040C0F17F6000F1E040C00F04BF01
:101C6000012000F017F8B0EE480A03B0F0EE680A61
:101C7000BDEC048B00BD02E008C8121F08C1002A99
:101C8000FAD170477047002001E001C1121F002AFD
:101C9000FBD170470149086070470000E400002054
:101CA0002DE9FE4307460E46144672B600BF03F008
:101CB00023F800BF00BF02F09BFD0028FBD100BF4E
:101CC00000BF6FF48040384488B101282FD12546E9
:101CD0002B882549DFF894C0A1EB0C01C908844684
:101CE0004CEA014022A16A6802F020FF2BE0254661
:101CF000A86803F04BF98046D5E900108DE8430051
:101D000019491A4BC91AC908012343EA014043463D
:101D10001EA1AA6802F02EFF1349144A891AC908A5
:101D2000012242EA014023A102F0EAFE0BE00E4943
:101D30000E4A891AC908012242EA0140324622A10C
:101D400002F0E8FE00BF00BF00BF2548006800F0B9
:101D5000010000B100BE00BF22463146384600F007
:101D600041F8BDE8FE830000B46D0000946D0000F2
:101D7000415353455254494F4E204641494C4544E6
:101D80002061742025733A25750000004552524F9A
:101D900052202575205B25735D2061742025733AE0
:101DA00025750D0A50432061743A2030782530386B
:101DB00078000000456E64206F66206572726F7255
:101DC000207265706F727400554E4B4E4F574E2007
:101DD0004641554C542061742030782530385800E5
:101DE000F0ED00E018B5012300939DF800301E4B84
:101DF000186059609A606FF48043034463B1012B0B
:101E000019D1194BDA60DB681B88174CA361234694
:101E1000DB685B68E3610EE0134B1A611B699B682A
:101E2000114C636123461B691B68A36123461B6930
:101E30005B68E36100BF00BF0B4B1B680A4B5B682C
:101E4000094B9B68084BDB68074B1B69064B5B69BA
:101E5000054B9B69044BDB6972B600BF9DF80030EF
:101E6000002BFBD162B618BDC001002000B50246B0
:101E700000F006F800BD00B5024600F00BF800BD0A
:101E800072B603480068401C0149086070470000B2
:101E90006C00002004480068401E034908600846A2
:101EA000006800B962B670476C00002070B5054646
:101EB0000C462068401C28B1206802F07DFB206899
:101EC00002F04CFB6068401C18B10021606802F011
:101ED0002BFB2868A169C0F8241500BF617D227D15
:101EE000286841EA0203C0F86C3500BFD4E900124B
:101EF000286803F0A4F8207D012814D1A068401CB4
:101F000018B10021A06802F00FFBE068401C28B166
:101F1000E06802F051FBE06802F020FBD4E9022106
:101F2000286803F075F870BD70B505460C4620684A
:101F3000401C28B1206802F04AFB206802F01AFB1E
:101F40006068401C18B10021606802F0FAFA286845
:101F5000A169C0F8241500BF617D227D286841EA8F
:101F60000203C0F86C3500BFD4E90012286803F002
:101F700099F8207D012814D1A068401C18B10021D7
:101F8000A06802F0DEFAE068401C28B1E06802F0C8
:101F90001EFBE06802F0EEFAD4E90221286803F0A3
:101FA00067F870BD002114E00C48D0F8102401231C
:101FB00008E000BFD0680079884201D1002303E027
:101FC000D0680268002AF4D100BF0BB10846704700
:101FD000491C0A29E8DB4FF0FF30F8E778030020BE
:101FE0007CB504464FF0FF35002001900090124868
:101FF0000460006810B96FF07E051BE00E490968A7
:1020000008790D490968012301AACE680021B0476B
:1020100005469DF804000849096848700122694690
:102020003E2000F0CDF8284445B29DF8000002495A
:102030000968487128467CBD040000207CB5044630
:102040004FF0FF350020009001905B48006810B908
:102050006FF07E007CBD5948007820B1012838D04F
:1020600002287CD16BE05449096808795249096813
:1020700006236A46CE680221B04705469DF8000057
:1020800000F0F0009DF8011049B240EA01202080E4
:10209000B4F90000001120809DF8020000F0F0006B
:1020A0009DF8031049B240EA01206080B4F90200B3
:1020B000001160809DF8040000F0F0009DF805100C
:1020C00049B240EA0120A080B4F904000011A080C8
:1020D0006EE03949096808793749096806236A4674
:1020E000CE680221B04705469DF8000000F0C00010
:1020F0009DF8011049B240EA01202080B4F90000A7
:10210000801120809DF8020000F0C0009DF80310AF
:1021100049B240EA01206080B4F902008011608079
:102120009DF8040000F0C0009DF8051049B240EA97
:102130000120A080B4F904008011A08038E01E497D
:10214000096808791C49096806236A46CE68022195
:10215000B04705469DF8000000F0FC0000E026E0D6
:102160009DF8011049B240EA01202080B4F9000036
:10217000801020809DF8020000F0FC009DF8031004
:1021800049B240EA01206080B4F90200801060800A
:102190009DF8040000F0FC009DF8051049B240EAEB
:1021A0000120A080B4F904008010A08000E000BFEE
:1021B00000BF28464EE70000040000200800002071
:1021C0002DE9F04104460D4616464FF0FF370A4808
:1021D000006818B96FF07E00BDE8F0810649096813
:1021E00008790549096833462A46D1F80CC02146CA
:1021F000E04707463846EFE704000020F8B50446FC
:102200004FF0FF350020009000264048006810B9CC
:102210006FF07E0577E03D4800684078FB2838D1B4
:10222000072C33DD0F2C31DAA4F10800072813D274
:10223000DFE800F00406080A0C0E100008260CE087
:1022400009260AE00A2608E00B2606E00C2604E030
:102250000D2602E00E2600E000BF00BF2B490968F2
:1022600008792A49096801236A46CF681021B847CE
:1022700005469DF8000066F30400009001226946BF
:10228000102000F071F9284445B23CE06FF00105E0
:1022900039E0072C35DD102C33DAA4F108000828CA
:1022A00015D2DFE800F00406080A0C0E101208260A
:1022B0000EE009260CE00A260AE00B2608E00C26B0
:1022C00006E00D2604E00E2602E00F2600E000BF27
:1022D00000BF0E49096808790C49096801236A465C
:1022E000CF681021B84705469DF8000066F304004A
:1022F000009001226946102000F036F9284445B2CA
:1023000001E06FF001052846F8BD00000400002040
:1023100001460020214A126812B96FF07E003BE0AE
:10232000062937DA35D2DFE801F0030B1D2F14261A
:1023300000221A4B1B689A70184B1B68DA7028E051
:102340000222164B1B689A700022144B1B68DA702D
:102350001FE00222114B1B689A7001220F4B1B6871
:10236000DA7016E004220D4B1B689A7000220B4BAA
:102370001B68DA700DE00422084B1B689A7001227A
:10238000064B1B68DA7004E00122044B1B689A704C
:1023900000BF01E06FF00100704700000400002062
:1023A000FEB505464FF0FF340026002700200290BE
:1023B000019000904048006810B96FF07E0478E00A
:1023C0003D49096808793C490968012302AAD1F806
:1023D0000CC01121E047044637490968087936499D
:1023E0000968012301AAD1F80CC01221E04720445A
:1023F00044B231480068407900909DF8000040F0F8
:102400000C0000902846FFF783FF204444B22A487E
:102410000068867828480068C7789DF8040067F34C
:1024200086100190012201A9122000F09DF820449D
:1024300044B2214800684169012088471E4800686D
:102440000078012804D01C4800680078042815D1C1
:10245000A5B99DF8080020F0E00040F0800002904F
:10246000012202A9112000F07FF8204444B2012289
:1024700069463E2000F078F8204444B29DF80800F8
:1024800066F347100290012202A9112000F06CF8B7
:10249000204444B20848006841690120884701226D
:1024A00069463E2000F060F8204444B202480068CB
:1024B00005702046FEBD000004000020F8B504466B
:1024C0004FF0FF35002000902648006810B96FF0EB
:1024D0007E00F8BD032C05D0052C03D0082C01D0BC
:1024E0000C2C3BD11F49096808791E490968012352
:1024F0006A46CE680F21B0470546032C06D0052C4E
:102500000BD0082C10D00C2C1ED115E09DF800002B
:1025100020F00F00C01C009017E09DF8000020F094
:102520000F00401D009010E09DF8000020F00F000B
:1025300040F00800009008E09DF8000020F00F0037
:1025400040F00C00009000E000BF00BF012269468F
:102550000F2000F009F8284445B201E06FF00105B2
:102560002846B6E7040000202DE9F04104460D4658
:1025700016464FF0FF370F48006818B96FF07E001D
:10258000BDE8F0810B49096808790A4909683346B2
:102590002A46D1F808C02146E047074605480068AA
:1025A000007820B103480068416901208847384617
:1025B000E6E7000004000020F8B504464FF0FF35C0
:1025C000002000900B48006810B96FF07E00F8BD45
:1025D0000849096848780749096801236A46CE68AE
:1025E0001221B04705469DF8000000F0070020705A
:1025F0002846ECE70C000020F8B504464FF0FF3504
:10260000002000900B48006810B96FF07E00F8BD04
:102610000849096848780749096801236A46CE686D
:102620001021B04705469DF8000000F0070020701B
:102630002846ECE70C0000207CB504464FF0FF353F
:102640000020009001901B48006810B96FF07E00D8
:102650007CBD1849096848781649096806236A4606
:10266000CE680221B04705469DF800008DF80000B5
:102670009DF800009DF8011049B240EA0120208039
:102680009DF802008DF802009DF802009DF80310ED
:1026900049B240EA012060809DF804008DF80400F2
:1026A0009DF804009DF8051049B240EA0120A08081
:1026B0002846CDE70C0000202DE9FC4104464FF0F0
:1026C000FF3500200190009000262D48006818B9C1
:1026D0006FF07E00BDE8FC812949096848782849E7
:1026E0000968012301AACF681121B847054624498A
:1026F000096848782249096801236A46CF6812218F
:10270000B847284445B29DF8040000F0A0004011ED
:1027100001909DF80000C0F380169DF80000C009EC
:10272000009016B10420207027E09DF8040028B91D
:102730009DF8000010B9002020701EE09DF80400F4
:10274000012803D09DF80400052802D10120207043
:1027500013E09DF80400042805D19DF8000010B98D
:102760000220207009E09DF80400042805D19DF89E
:102770000000012801D1032020702846AAE70000AC
:102780000C000020F8B504464FF0FF350020009003
:102790000948046001460968487807490968012327
:1027A0006A46CE680021B04705469DF80000024900
:1027B000096808702846F8BD0C000020F8B50446EA
:1027C0000D464FF0FF360020009000273448006887
:1027D00010B96FF07E00F8BD31490968487830497A
:1027E000096801236A46D1F80CC01221E047064669
:1027F000082C51DA082D35D2DFE805F0040A10164E
:102800001C22282E012C01DD274600E001272FE0A5
:10281000012C01DD274600E0012729E0012C01DD24
:10282000274600E0012723E0022C01DD274600E0D7
:1028300002271DE0042C01DD274600E0042717E0F5
:10284000062C01DD274600E0062711E0042C01DDFF
:10285000274600E004270BE0062C01DD274600E0B8
:10286000062705E0012C01DD274600E0012700BF17
:1028700000BF9DF8000067F3020000900849096856
:1028800048780749096801236A46D1F808C012212F
:10289000E047304446B201E06FF0010630469AE767
:1028A0000C000020FEB504464FF0FF3500200290DA
:1028B000019000901D48006810B96FF07E00FEBDC9
:1028C000082C2EDA01A8FFF7F7FE05469DF8040054
:1028D000042809D16846FFF76FFE054621469DF89A
:1028E0000000FFF76BFF05461049096848780F495B
:1028F0000968012302AACE681021B04705469DF859
:10290000080064F302000290084909684878074902
:102910000968012302AA8E681021B047284445B2F5
:1029200001E06FF001052846C9E700000C00002017
:1029300070B586B005464FF0FF3400200590049036
:102940000390029001909648006818B96FF07E00DD
:1029500006B070BD052D79DA91490968487890492B
:102960000968012305AACE681121B04704468C49A5
:10297000096848788A490968012304AACE681221A7
:10298000B047204444B2052D30D2DFE805F00330D3
:10299000608FBE009DF8140020F0A00005909DF807
:1029A000100020F0800004909DF8100020F04000FE
:1029B00003907B490968487879490968012305AA89
:1029C0008E681121B047204444B2754800680169FF
:1029D00001208847724909684878714909680123CC
:1029E00003AA8E681221B047204444B2D2E09DF879
:1029F000140020F0A00040F0200005909DF8100089
:102A000020F0800004909DF8100020F0400003901A
:102A100063490968487862490968012305AA8E68F4
:102A20001121B047204444B25D480068016901208B
:102A300088475B490968487859490968012303AA0E
:102A40008E681221B047204444B2A3E0A3E09DF871
:102A5000140020F0A00040F0800005909DF81000C8
:102A600020F0800004909DF8100020F040000390BA
:102A70004B49096848784A490968012305AA8E68C4
:102A80001121B047204444B2454800680169012043
:102A9000884743490968487841490968012303AADE
:102AA0008E681221B047204444B273E09DF81400B0
:102AB00020F0A00040F0800005909DF8100040F04C
:102AC000800004909DF8100020F0400003903449ED
:102AD0000968487832490968012305AA8E681121DE
:102AE000B047204444B22E4800680169012088475D
:102AF0002B49096848782A490968012303AA8E6886
:102B00001221B047204444B244E001A8FFF774FD0D
:102B100002A8FFF751FD9DF804109DF80800FFF78B
:102B20004DFE1F49096848781D490968012304AA18
:102B3000CE681221B047204444B29DF8140020F022
:102B4000A00005909DF8100020F0800004909DF8F2
:102B5000100040F04000039011490968487810497E
:102B60000968012305AA8E681121B047204444B2A8
:102B70000B480068016901208847094909684878BD
:102B800007490968012303AA8E681221B04720442F
:102B900044B200BF01E06FF001042046D8E6000017
:102BA0000C000020F8B504464FF0FF3500200090DF
:102BB0001448006810B96FF07E00F8BD052C1CDACF
:102BC0001049096848780F49096801236A46CE68A8
:102BD0000F21B04705469DF8000064F30200009005
:102BE0000849096848780749096801236A468E68D8
:102BF0000F21B047284445B201E06FF00105284697
:102C0000DBE700000C00002010B50246002012F5A2
:102C1000805F39D099B11E4B1B68DB8B7BB11C4B9D
:102C20001B68DB8B9C0309B10B4602E0184B1B6849
:102C3000DB8B94FBF3F3A3F5804318B201E0154856
:102C400010BD134B1B6893F91D3000FB00F4E41119
:102C500063430F4C2468247FE40100FB04334FF4EA
:102C6000801404EB63230A4C246894F91240A034C6
:102C700063431B1353435B13054C246894F91040C2
:102C800003EBC40318B200E0024800BFD8E700001D
:102C9000100000200080FFFF10B50246002012F552
:102CA000805F39D099B11E4B1B68DB8B7BB11C4B0D
:102CB0001B68DB8B9C0309B10B4602E0184B1B68B9
:102CC000DB8B94FBF3F3A3F5804318B201E01548C6
:102CD00010BD134B1B6893F91D3000FB00F4E41189
:102CE00063430F4C2468247FE40100FB04334FF45A
:102CF000801404EB63230A4C246894F91340A03435
:102D000063431B1353435B13054C246894F9114030
:102D100003EBC40318B200E0024800BFD8E700008C
:102D2000100000200080FFFF30B503460A46002156
:102D300013F5804F3FD021480068C08A60B31F4818
:102D40000068808A40B33AB31C480068C08B18B34F
:102D50001A480068B0F91800184C2468E48B24B2B3
:102D600015B22C1B60438010144C2468B4F91A402F
:102D70001C1BC0EBC43411480068808A15B26D007A
:102D8000684300F500400D4D2D68B5F9165005EB70
:102D9000204094FBF0F102E00949084630BDB1F54E
:102DA000004F02DB47F6FF7106E011F5004F03DC30
:102DB0000349491C00E0024908B2EFE71000002077
:102DC0000080FFFFF8B504464FF0FF35002000906B
:102DD0000C48006810B96FF07E00F8BD0949096819
:102DE00048780849096801236A468E684B21B04734
:102DF000054625B99DF8000000F001002070284626
:102E0000EBE7000010000020F8B505464FF0FF3456
:102E10000020009013480560012000F045FA0446A8
:102E200010480068C168032088470E49096848783F
:102E30000C49096801236A468E684021B047204446
:102E400044B29DF8000007490968087000F00CF8CA
:102E5000204444B2022000F053FA204444B22046F9
:102E6000F8BD00001000002038B54FF0FF340020FE
:102E700000906349096848786149096801238D68B1
:102E80005F490A6810325D21A84704465C49096819
:102E900048785B49096801238D6859490A681132ED
:102EA0005E21A847204444B25549096848785449EE
:102EB000096801238D6852490A6812326421A847C3
:102EC000204444B24E49096848784D4909680123B5
:102ED0008D684B490A6813326521A847204444B2E3
:102EE0004749096848784649096801238D6844497B
:102EF0000A681C327121A847204444B2404909683D
:102F000048783F49096801238D683D490A681D32A8
:102F10007021A847204444B23949096848783849A3
:102F2000096802236A468D686A21A847204444B292
:102F30009DF800009DF8011040EA01203049096821
:102F400088822F49096848782D49096802236A4612
:102F50008D686821A847204444B29DF800009DF880
:102F6000011049B240EA012025490968C882244974
:102F7000096848782249096802236A468D686E21EB
:102F8000A847204444B29DF800009DF8011049B2C2
:102F900040EA01201A4909680883194909684878F4
:102FA0001749096802236A468D686221A8472044B0
:102FB00044B29DF800009DF8011049B240EA01209A
:102FC0000F49096848830E49096848780C4909681F
:102FD00002236A468D686C21A847204444B29DF8BC
:102FE000010000F07F008DF801009DF800009DF8C1
:102FF000011040EA012002490968C883204638BD13
:10300000100000207FB504464FF0FF3500200290ED
:1030100003903548006818B96FF07E0004B070BDA9
:1030200031490968487830490968082302AA8E683E
:103030004221B0470546002D53D19DF80800C00835
:103040008DF808009DF808009DF8091049B240EA83
:103050004110ADF800009DF80A00C0088DF80A0084
:103060009DF80A009DF80B1049B240EA4110ADF8F6
:1030700002009DF80C0040088DF80C009DF80C0033
:103080009DF80D1049B240EAC110ADF804009DF85A
:103090000E0000F0010020729DF80E0080088DF8EF
:1030A0000E009DF80E009DF80F1040EA8110ADF85B
:1030B0000600BDF80610BDF90000FFF7A5FD208051
:1030C000BDF80610BDF90200FFF7E6FD6080BDF80F
:1030D0000610BDF90400FFF727FEA080BDF806002A
:1030E000E08028469AE7000010000020F8B504466A
:1030F0004FF0FF35002000901148006810B96FF0C4
:103100007E00F8BD0E49096848780D490968012319
:103110006A468E684C21B04705469DF8000064F36E
:10312000C5000090064909684878054909680123E7
:103130006A464E684C21B047284445B22846E0E72D
:1031400010000020F8B505464FF0FF340020009035
:103150005448006810B96FF07E00F8BD35B1012DFC
:1031600038D0022D31D0032D7ED163E06846FFF7C1
:1031700029FE04469DF8000048B9012000F094F8AB
:10318000204444B247480068C16803208847454945
:10319000096848784349096801236A468E684C21CA
:1031A000B047204444B29DF8000020F00600009093
:1031B0003C49096848783B49096801236A464E68DA
:1031C0004C21B047204444B269E0002000F06CF884
:1031D000044664E06846FFF7F5FD04469DF80000EC
:1031E00048B9012000F060F8204444B22D4800683E
:1031F000C168032088472B4909684878294909682C
:1032000001236A468E684C21B047204444B29DF8A1
:10321000000020F00600801C0090224909684878D0
:103220002049096801236A464E684C21B047204472
:1032300044B234E06846FFF7C5FD04469DF800003F
:1032400048B9012000F030F8204444B21548006825
:10325000C1680320884713490968487811490968FB
:1032600001236A468E6800E016E04C21B0472044F6
:1032700044B29DF8000020F00600801D009009492E
:10328000096848780749096801236A464E684C2155
:10329000B047204444B202E06FF0010400BF00BF19
:1032A00020465AE710000020F8B504464FF0FF35DD
:1032B000002000901148006810B96FF07E00F8BD42
:1032C0000E49096848780D49096801236A468E68E5
:1032D0004B21B04705469DF8000064F300000090C4
:1032E0000649096848780549096801236A464E6815
:1032F0004B21B047284445B22846E0E710000020A3
:1033000070B505464FF0FF34012D06D0022D13D0C5
:10331000032D20D0042D3CD12CE00020FFF7E6FE49
:103320000446012000F03CF8204444B2022000F0A2
:1033300053F8204444B22FE00020FFF7D7FE0446A4
:10334000042000F02DF8204444B20E2000F044F890
:10335000204444B220E00520FFF7C8FE04461720B1
:1033600000F01EF8204444B2522000F035F820440A
:1033700044B211E00020FFF7B9FE0446072000F038
:103380000FF8204444B21A2000F026F8204444B23A
:1033900002E06FF0010400BF00BF204670BD0000D6
:1033A000F8B504464FF0FF3500200090094800684A
:1033B00010B96FF07E00F8BD00940649096848789E
:1033C0000449096801236A464E685121B047054601
:1033D0002846F0E710000020F8B504464FF0FF350E
:1033E000002000900948006810B96FF07E00F8BD19
:1033F00000940649096848780449096801236A4627
:103400004E685221B04705462846F0E710000020DC
:103410002DE9F84F04460D461646A71C4FF001084B
:103420000020FEF723FD3048006828602E48006821
:103430002D494968411A2C488068401CA0EB0109BD
:1034400015E00121294800F085FD00F0B5FB82461A
:103450005146264800F07EFD23480068224949680D
:10346000411A21488068401CA0EB010900BF4F456C
:10347000E7D8B8F1000F30D00021009176B1009963
:1034800021F00301491C0091009921F00401091D5C
:103490000091009964F3891100910DE0009921F0E9
:1034A0000301891C0091009921F00401091D00917C
:1034B000009964F39F5100910B4909680A4A926888
:1034C0001140094A0C3202EB810000990160064963
:1034D000096839440C3A116000BF0020FEF7CBFCAC
:1034E0004046BDE8F88F00007803002094070020D4
:1034F00070B504460D46A168481CA060206845547C
:10350000D4E90110884202D3204600F09CFE70BD31
:103510000448406803490968884201D10120704786
:103520000020FCE77803002010B50021034800F0DC
:1035300027FD044684F3100010BD0000940700200E
:1035400030B587B0044600250CB907B030BD18214E
:1035500001A8FCF7DAFF2068401020606068401086
:103560006060A0684010A060E0684010E060242027
:103570008DF8040002208DF805002068000E8DF8FB
:1035800007002068000C8DF808002088000A8DF8DC
:10359000090020788DF80A006068000E8DF80B0095
:1035A0006068000C8DF80C00A088000A8DF80D00F2
:1035B00020798DF80E00A068000E8DF80F00A0682D
:1035C000000C8DF810002089000A8DF81100207A77
:1035D0008DF81200E068000E8DF81300E068000C12
:1035E0008DF81400A089000A8DF81500207B8DF855
:1035F00016000D208DF819000A208DF81A000EE033
:1036000029466B1CDDB201AB5A5C0749074BC91A4E
:10361000C908052343EA014005A101F07BFA172DF3
:10362000EEDB00BF91E70000B46D0000946D000078
:103630002563000013480078062820D11148001D9A
:10364000007800F00F00D0B90E480830007800F084
:10365000F000302801D1012070470A480830007876
:1036600000F0F000402801D10120F5E705480830BE
:10367000007800F0F000502801D10120ECE7002094
:10368000EAE70000E00F00F013480078062820D198
:103690001148001D007800F00F00D0B90E48083026
:1036A000007800F0F000302801D1012070470A486E
:1036B0000830007800F0F000402801D10120F5E743
:1036C00005480830007800F0F000502801D10120B2
:1036D000ECE70020EAE70000E00F00F01348007874
:1036E000062820D11148001D007800F00F00D0B945
:1036F0000E480830007800F0F000302801D1012099
:1037000070470A480830007800F0F000402801D1E6
:103710000120F5E705480830007800F0F000502857
:1037200001D10120ECE70020EAE70000E00F00F003
:103730000A48007806280ED10848001D007800F0DD
:103740000F0040B905480830007800F0F00030283C
:1037500001D1012070470020FCE70000E00F00F0DD
:1037600006480068062806D10448001D006806289F
:1037700001D1012070470020FCE70000300100105B
:1037800013480078062820D11148001D007800F069
:103790000F00D0B90E480830007800F0F000302853
:1037A00001D1012070470A480830007800F0F0008D
:1037B000402801D10120F5E705480830007800F0E5
:1037C000F000502801D10120ECE70020EAE70000DA
:1037D000E00F00F00A48007806280ED10848001DC6
:1037E000007800F00F0040B905480830007800F07C
:1037F000F000302801D1012070470020FCE70000D4
:10380000E00F00F013480078062820D11148001D71
:10381000007800F00F00D0B90E480830007800F0B2
:10382000F000302801D1012070470A4808300078A4
:1038300000F0F000402801D10120F5E705480830EC
:10384000007800F0F000502801D10120ECE70020C2
:10385000EAE70000E00F00F00A48007806280ED1E1
:103860000848001D007800F00F0040B905480830F6
:10387000007800F0F000302801D1012070470020CE
:10388000FCE70000E00F00F00A48007806280ED19F
:103890000848001D007800F00F0040B905480830C6
:1038A000007800F0F000302801D10120704700209E
:1038B000FCE70000E00F00F00A48007806280ED16F
:1038C0000848001D007800F00F0040B90548083096
:1038D000007800F0F000502801D10120704700204E
:1038E000FCE70000E00F00F02DE9FC5F83460E4688
:1038F00091461F46DDE90C45002E01DA704200E0DA
:10390000304682464FF0010803E09AFBF9FA08F1CD
:103910000108CA45F9DA474500D9B84634B1002E46
:1039200003DB05F00400042800D1641E05F002004A
:1039300000B167B105F0010048B944B104E0641E6C
:1039400020215846FFF7D4FD0CB1A045F7D3002E37
:1039500005DA76422D215846FFF7CAFD07E005F04B
:103960000400042803D12B215846FFF7C1FD05F0C0
:10397000020002280DD105F0010050B94FB944B141
:1039800004E0641E30215846FFF7B2FD0CB1A0459B
:10399000F7D33B464A4631465846CDE9004502F04A
:1039A000C3FDBDE8FC9F000070B5054609492868C5
:1039B00001F033FB286801F08DFB0446204600F03F
:1039C0001F0201219140044A430942F8231000BF1D
:1039D00000BF70BD8402020080E100E070B50546C2
:1039E0000949286801F04AFB286801F077FB044682
:1039F000204600F01F0201219140044A430942F889
:103A0000231000BF00BF70BD1003020080E100E082
:103A10002DE9F04104460E464FF48E71206801F006
:103A2000F0FA4FF4A271206801F0EBFA1749206810
:103A300001F0F6FA206801F04DFB054637462846AE
:103A40003946002809DA4A074FEA126C104A00F09A
:103A50000F031B1F02F803C003E04A07130E0D4AB1
:103A6000135400BF00BF206801F034FB0546284610
:103A700000F01F02012191404209920002F1E02270
:103A8000C2F8001100BF00BFBDE8F0818000020055
:103A900018ED00E000E400E02DE9F04104460E4698
:103AA0004FF48871206801F0DCFA4FF490712068BF
:103AB00001F0D7FA4FF49271206801F0D2FA4FF476
:103AC000A271206801F0CDFA1749206801F0D9FAF7
:103AD000206801F003FB0546374628463946002892
:103AE00009DA4A074FEA126C104A00F00F031B1F55
:103AF00002F803C003E04A07130E0D4A135400BF37
:103B000000BF206801F0EAFA0546284600F01F02CF
:103B1000012191404209920002F1E022C2F8001115
:103B200000BF00BFBDE8F0811003020018ED00E007
:103B300000E400E0F0EE400AF6EE001A60EEA11A92
:103B4000B0EE611AB0EE600A10EE100A0749A1EB60
:103B5000600000EE100A21EE002AF7EE081A42EE8D
:103B6000401A61EE801AB0EE610A7047DF59375F84
:103B700030B5024600201378C3F38003D3B1137825
:103B800003F00303012B02D0022B10D107E01388AE
:103B9000C3F383139B1C0C6823440B6008E00B6881
:103BA0000225146805EB945423440B6000E000BF29
:103BB00000BF012030BD00002DE9FF4100272E4845
:103BC00000F0C1F92C48001F00F0BDF92B484068F7
:103BD00003902A4885680398284028490C3101EB56
:103BE000800800BF03A94046FFF7C2FF30B1039829
:103BF000284022490C3101EB800800E000E0F1E7A9
:103C000000BF00240AE00398411C284003911B498F
:103C10000C3151F820004DF82400641C022CF2D322
:103C2000009800F0030001280DD0022814D1BDF83F
:103C300006700421009801EB9050401E039901EB9F
:103C40009000039009E0BDF806700098C0F383105F
:103C500003990844039000E000BF00BF0648001F1E
:103C600000F06AF9064616B10449039848603846E0
:103C700004B0BDE8F0810000900700207803002028
:103C800088B0002500BF0021084600F0EDFF044683
:103C900034B100BF4AA2E9212046FCF7BBFA00BFBD
:103CA00000BF00F091FD4A494A4A891AC908032217
:103CB00042EA014048A100F023FF00BF00BF00F02E
:103CC00097FD0028FBD100BF01F076FF00BFFCF795
:103CD00065FF044634B100BF39A2F2212046FCF74B
:103CE00099FA00BF00BF26200721002807DA4A07FB
:103CF000140E414A00F00F031B1FD45403E04A077F
:103D0000130E3E4A135400BF262000F01F0201216B
:103D100091403B4A430942F8231000BF00BF00F026
:103D20001F02012191404209920002F1E022C2F8F3
:103D3000001100BF0020FCF7ABFE45B20DE02449A6
:103D4000244A891AC908032242EA01402DA100F041
:103D5000D7FE4FF47A7000F09BF9002DEFD12EE0E2
:103D60000A2000F095F901F07BFD00BF00200490CF
:103D70000590069007902B4890ED000A8DED000A03
:103D8000294890ED000A8DED010A284890ED000ABF
:103D90008DED020A264890ED000A8DED030A0422FB
:103DA00004A96846FCF7C8FA04A8FFF7C9FB00BFDE
:103DB00000BF00BF00F01CFD0028FBD100BFCFE713
:103DC0002E2E5C2E2E5C2E2E5C6D61696E2E630095
:103DD000B46D0000946D00000D0A545749207365BE
:103DE0006E736F72206578616D706C65207374619D
:103DF000727465642E00000018ED00E000E400E03D
:103E000080E200E00D0A424D583035355F43616C69
:103E10006962726174654D6167206661696C757273
:103E2000652100002C00002030000020340000201C
:103E3000380000202DE9FF4F87B0044691461E460A
:103E4000A2462546BAF806009AF805104843001F16
:103E50000690BAF806B0301DB0FBFBF00590301D9F
:103E6000B0FBFBF10BFB11000490D9F800008119A5
:103E70000698814202D90698801B01E0D9F800001B
:103E80000746C9F8007003E02D680598401E0590AC
:103E900005980028F8D103900498ABEB0008B845CA
:103EA00001D9384600E04046804623E0039908984F
:103EB00008440290281D049908440190149828B1E0
:103EC0004246DDE90110FCF707FB04E04246DDE96C
:103ED0000101FCF701FB002004902D68A7EB080707
:103EE000039840440390BB4501D9384600E058464A
:103EF000804600BF002FD9D10BB0BDE8F08F000085
:103F000070B503460C469CB100F0DAFE054600226F
:103F10000AE0084800EB820108881E68B04202D11E
:103F20001A60002070BD521CAA42F2D30520F9E7A6
:103F30000020F7E70000000010B5044600212046ED
:103F400000F013F810BD10B504460121204600F022
:103F500022F810BDF8B504460D466A4629462046AB
:103F6000FCF799F906460098F8BDF8B504460D46E9
:103F70006A4629462046FCF774F906463046F8BDE5
:103F8000F8B504460D466A4629462046FCF750F926
:103F900006463046F8BDF8B504460D466A46294641
:103FA0002046FCF751F906460098F8BDF8B50446DE
:103FB0000D466A4629462046FCF77AF906460098DF
:103FC000F8BD70B5044600260020FDF74FFF2068BD
:103FD00000686168884215D920680068401E226820
:103FE00010600178204600F02FF80646207A2168FC
:103FF0000978401AC5B220680079A84201DA206821
:10400000057100BF0020FDF736FF304670BD024647
:10401000D068081A138AB0FBF3F0C0B2704770B5CD
:1040200004460D462E460020FDF720FF314620466F
:10403000FFF7EDFF21680A68511C236819601070B2
:104040000020FDF718FF70BD0246138AD06801FBFF
:104050000300704710B5014600BF09B90E2010BD1E
:1040600000BF087A0B79C01AC2B2D1E900301860DB
:1040700005E008680368581C0C6820601A7010007E
:10408000A2F10103DAB2F4D10B68187100BFE6E7C0
:104090002DE9F04104460CB9BDE8F08100BF4FF4B2
:1040A0007A7505B904E0054FAE013046B84700BF48
:1040B000601E0400F3D100BFEEE70000F1650000D0
:1040C0002DE9F04104460CB9BDE8F08100BF4FF482
:1040D0007A7505B904E0054FAE013046B84700BF18
:1040E000601E0400F3D100BFEEE70000116600007F
:1040F0002DE9F04704460D461646984627780D48A8
:1041000040F827600C4840F82780687B10B12846AB
:1041100001F0E2FC4FF000090EB1084800E0002079
:1041200002463B462946201D01F02AF881464846B2
:10413000BDE8F0874800002050000020715B0000BF
:104140002DE9F04104460D4616461F464FF0000883
:104150003B4632462946201D01F09EF880464046E7
:10416000BDE8F0812DE9F84304460D4616461F468A
:10417000DDF820804FF000093B4632462946201DDD
:10418000CDF8008001F0A0F881464846BDE8F883EC
:104190002DE9F04188B004460F46154626781A48A6
:1041A00040F826501949386941F82600787F1849A7
:1041B0008855202239466846FCF78EF904964FF060
:1041C000000820781249085C50B10DB1114800E098
:1041D000002002466946201D01F080F980460EE06D
:1041E00020780B49085C50B90DB10B4800E0002065
:1041F0000246694604F10C0001F0A8F880464046EA
:1042000008B0BDE8F0810000580000205C000020EC
:1042100060000020ED630000F16100000FB438B5CC
:104220000446059810B938BC5DF814FB00200090D6
:1042300006A800906A462046059900F012F8002072
:10424000009000BFEFE770B50446A06800B970BDEC
:10425000D4E90403A268216898470020A06000BF49
:10426000F5E72DE9FC5F82460D4614460DB9BDE821
:10427000FC9F00BF2E786D1C06B9E1E0252E70D1A1
:1042800000274FF0010900BF2E782B2E0CD02D2EC9
:1042900002D0302E0CD103E047F001076D1C0AE07C
:1042A00047F002076D1C06E047F004076D1C02E0B2
:1042B0004FF0000900BF00BFB9F1000FE4D14FF08B
:1042C000000800BF2A2E06D12168081D206008685A
:1042D00080446D1C0DE02E78302E01DB392E00DD80
:1042E00007E06D1CA6F1300008EB880100EB4108E7
:1042F000E8E700BF4FF0000B2E782E2E10D16D1C7A
:1043000000BF2E78302E01DB392E00DD07E06D1C5A
:10431000A6F130000BEB8B0100EB410BF1E700BF86
:104320002E7800BF6C2E01D0682E02D16D1C2E7825
:1043300000E000E0F6E700BF692E21D008DC252E62
:104340006DD0582E39D0632E0CD0642E6CD116E06F
:10435000702E4CD0732E3ED0752E1FD0782E63D188
:104360002AE065E02168081D2060D1F8009009F07E
:10437000FF00019050460199FFF7BAF855E000BFE1
:104380002168081D2060D1F800905B460A2249464A
:104390005046CDE90087FFF7A7FA46E02168081DDF
:1043A0002060D1F800905B460A2249465046CDE98C
:1043B000008702F0B9F838E000BF2168081D2060CE
:1043C000D1F800905B46102249465046CDE900875F
:1043D00002F0AAF829E02168081D20600868019011
:1043E0003B4642465046019901F03AFB1DE02168E8
:1043F000081D2060D1F8009030215046FFF778F872
:1044000078215046FFF774F8002008210B4610224F
:10441000CDE900104946504602F086F805E0252116
:104420005046FFF765F800E000BF00BF6D1C03E0D9
:1044300031465046FFF75CF8287800287FF41AAF21
:1044400000BF9AF80C0010B15046FFF7FCFE00BF09
:104450000DE7F0B5DDE9054500BF4FF0A0473E464A
:1044600041EA420747EA830747EA042747EA054C3F
:1044700006F5E06747F820C0F0BDF0B5DDE9054579
:1044800000BF4FF0A0473E4641EA420747EA830794
:1044900047EA042747EA054C06F5E06747F820C0DD
:1044A000F0BDF0B5DDE9054500BF4FF0A0473E4641
:1044B00041EA420747EA830747EA042747EA054CEF
:1044C00006F5E06747F820C0F0BD1CB504460020A3
:1044D000009003460122014601902046FFF7CDFFE0
:1044E0001CBD1CB504460020009003460122014675
:1044F00001902046FFF7D5FF1CBDF0B50022134602
:104500001446154600BF4FF0A0473E4642EA430717
:1045100047EA810747EA042747EA054C06F5E067C2
:1045200047F820C000BFF0BD7CB505460C46002012
:10453000009023460246014601902846FFF79DFF62
:104540007CBD7CB505460C46002000902346024603
:10455000014601902846FFF7A4FF7CBD1CB5044628
:104560000020009003460122114601902046FFF7EB
:1045700084FF1CBD1CB504460020009003460122A8
:10458000114601902046FFF78CFF1CBD00BF4FF085
:10459000A0410A46012303FA00F1C2F80C1500BF3E
:1045A000704700BF4FF0A0410A46012303FA00F113
:1045B000C2F8081500BF704700BF4FF0A0410A467F
:1045C000012303FA00F1C2F8081500BF704700BFCD
:1045D0004FF0A0410A46012303FA00F1C2F8081582
:1045E00000BF704770B504460E46FDF7DBFC05467C
:1045F000681C08B9284670BDE8B2E168087100BFC0
:104600000C48D0F8100430B90A48C0F81044002013
:10461000E16808600BE00748D0F81004C068006843
:10462000E16808600348D0F81004C06804602846B8
:10463000E1E70000780300202DE9F04F93B08246B7
:104640000E4617469846DDF87090304600F031FC73
:1046500018210DA8FBF759FF0D97CDF83880CDF83C
:10466000489000252B46082207A9304600F03EFC62
:10467000082509980A90BDF82000ADF82C00BDF877
:104680002200ADF82E0000208DF83100079800F0D0
:10469000030001281BD107984FEA902B0798C0F31D
:1046A000C2008DF830000798C0F38314A2002B4697
:1046B00001A9304600F01AFC05EB84050DA80AABF1
:1046C000224601A90090584600F032FB27E00798E7
:1046D00000F00300022822D107984FEA905B079868
:1046E000C0F3C2008DF8300000BFBBF1080F01D24B
:1046F000584600E0082004462B46224605A93046CD
:1047000000F0F4FB2544ABEB040B0DAB0AAA2146E9
:1047100005A800F04BFABBF1000FE6D100BF304610
:1047200000F0D5FB13B0BDE8F08F704710B5012441
:10473000204601F07FFD10BD70B505460A4C20787B
:104740000A49085C18B1201D00F06CFF07E02078D2
:104750000649085C18B904F10C0000F093FE00BF94
:10476000002001F067FD70BD700000206000002097
:1047700038B504460D4604484023044A29460090B3
:104780002046FFF759FF38BD05590000E001002021
:1047900010B502460B4C04EBC203012906D00229D6
:1047A00006D0032906D0042908D105E0022007E03D
:1047B000042005E0187903E0587901E0002000BFEB
:1047C00000BF10BD946D000010B54FF0FF34FFF72F
:1047D000ADFF04210548FFF705FF044600BF012097
:1047E0000249C968487100BF10BD0000846D000017
:1047F0002DE9F04F8BB0FEF78BFE18B100200BB007
:10480000BDE8F08F0020B549C1F8180400BF00BF13
:1048100000BFBFF34F8F00BF00BF00BF0846406816
:104820000A90084684680A9820400C3101EB800AFF
:10483000002500260020069000BF0AA95046FFF779
:1048400097F9A8B1A548D0F8180488B9A34800681A
:104850000A99884205D8A1480068A049486000200C
:10486000CDE70A9820409D490C3101EB800A00E019
:1048700000E0E2E700BF00270BE00A98411C20405F
:104880000A9196490C3151F8200007A941F82700F8
:104890007F1C022FF1D3079800F0030002287CD17F
:1048A0000798800D059050210798B1EB905F02DDCD
:1048B0000798800D00E050208146079869F39F50CB
:1048C000079009F1080004900798C0F3C200069011
:1048D0008348049900F090FA0546002D5BD02846E5
:1048E00000F0E7FA3346082207A9284600F00FFB3C
:1048F00008360A982040611C081A4FEA8008C14512
:1049000035D9B8F1000F06D00A98204073490C3110
:1049100001EB800001E071480C300390B8F1000F0A
:1049200001D0404600E0484600F0FF0BB8F1000F10
:1049300002D06A480C3000E000200290B8F1000F6D
:1049400002D0A9EB080000E00020C0B2019033467D
:104950005A462846039900F0DAFA5E44029828B1D4
:1049600033462846DDE9012100F0D1FA0CE00A982F
:1049700020405A490C3101EB800B33464A465946D8
:10498000284600F0C4FA00BF0598C01C0A9901EB44
:1049900090000A9000BF44E0FFE7079800F0030092
:1049A00001283ED10798C0F38310062803DA079840
:1049B000C0F3831000E00620079960F38911079186
:1049C0000798C0F3831000F102080798C0F3C200F3
:1049D00006904FEA8801424800F00EFA0546FDB104
:1049E000284600F066FA3346082207A9284600F058
:1049F0008EFA083600270EE00A98421C20400A92E0
:104A0000364A0C3202EB800133460422284600F07D
:104A10007EFA361D7F1C0798C0F38310B842EBD88E
:104A200000BFC5B32D48D0F81084D0F8180418B1D1
:104A3000284600F04CFA2DE019E04FF0000900BFC5
:104A4000D8F80C004079012800D18146B9F1000F57
:104A500008D000BFD8F800002946026840469047B9
:104A600000BF00BFD8F80C00D0F8008000BFB8F13C
:104A7000000FE2D1284600F02AFA0020FDF7F6F9EF
:104A80001648D0F8180410B914490A984860002054
:104A9000FDF7F1F91DE0FFE71048D0F810840AE0B7
:104AA000C146D9F8000081684846884700BFD8F859
:104AB0000C00D0F80080B8F1000FF1D109490A4A82
:104AC000891AC908022242EA014008A100F018F838
:104AD00000BFFEF71DFD80F0010090E67803002086
:104AE000BC6D0000B46D0000946D00004261636B0A
:104AF000656E647320666C75736865640000000001
:104B000070B504460D4600231A462946204600F09B
:104B10006FFF70BDF8B505460E461446009401239C
:104B20006A463146284600F063FFF8BD2DE9FC4196
:104B300006460F4614461D460094019502236A4618
:104B40003946304600F054FFBDE8FC812DE9FE43B4
:104B500006460F4614461D46DDF828800094019550
:104B6000CDF8088003236A463946304600F040FFFE
:104B7000BDE8FE832DE9F04786B006460F46144691
:104B80001D46DDE90F9ADDF8388001940295CDF8D5
:104B90000C80CDF81090CDF814A0052301AA394659
:104BA000304600F025FF06B0BDE8F0872DE9F05F44
:104BB00007460E4690461D46082E01D9BDE8F09FD7
:104BC00095F80C90002028732946404600F0EAFD35
:104BD00000240CE0B44205D23A5D1DA12846FFF73F
:104BE0001DFB03E01CA12846FFF718FB641C082CE2
:104BF000F0D31AA12846FFF711FB00241DE0B442B0
:104C000016D217F804A0BAF17E0F09DCFBF760FC9E
:104C1000006810F80A0000F03E0008B1504600E0BD
:104C20002E2083465A460EA12846FFF7F7FA03E0E6
:104C30000CA12846FFF7F2FA641C082CDFD30122EE
:104C40002946404600F08AFD85F80C9000BFB5E784
:104C50002025303278000000202020007C00000059
:104C600025630000200000002DE9F04106460F46B4
:104C700000BFFF200D498860002008604860C1F82F
:104C80001804C1F8140481F82004094800F019F947
:104C9000044614B12046BDE8F081064800F048F90A
:104CA00005480649401AC5080020F4E778030020AB
:104CB000BC6D000030680000BC6D0000946D000009
:104CC00002480349401AC00870470000BC6D00004C
:104CD000946D000013B50C4621466846FFF710F9A5
:104CE00028B90448009A00EBC20108681CBD0020E6
:104CF000FCE70000946D000070B50C48D0F810443B
:104D000001200A4981F820040CE000BF0120E1687D
:104D1000487100BF2546286841682846884700BF7B
:104D2000E0680468002CF0D170BD0000780300201A
:104D30002DE9FF4707460C46164698460C9D95F808
:104D40000C90002028732946404600F02BFD072ECA
:104D500047D2DFE806F004090F161F2A370039464C
:104D60002846FFF75BFA3DE0394628462268FFF700
:104D700055FA37E039462846D4E90023FFF74EFAC2
:104D800030E0A068009039462846D4E90023FFF7B8
:104D900045FA27E0D4E90201CDE900013946284669
:104DA000D4E90023FFF73AFA1CE0D4E902122069A3
:104DB000CDE90012029039462846D4E90023FFF7D6
:104DC0002DFA0FE0D4E90223D4E90410CDE9002341
:104DD000CDE9021039462846D4E90023FFF71EFA30
:104DE00000E000BF00BF00222946404600F0B6FCAC
:104DF00085F80C90BDE8FF872DE9F84F07468A46F5
:104E0000388AA0F104080AF104004044401EB0FBB7
:104E1000F8F0C0B200903846FFF7D3F8044614B952
:104E20000020BDE8F88F0020207101216171A4F8F5
:104E3000068025460098A0F1010B2C462F604FF00C
:104E4000000912E03846FFF7BCF8064636B1607933
:104E5000401C60712E603760354604E0204600F04B
:104E600008F80020DDE709F10109D945EAD3204619
:104E7000D7E72DE9F05F0446274697F805802646D8
:104E8000A8F1010B002501E036686D1C5D45FBD3E0
:104E9000D6F800A02646002507E0D6F80090314657
:104EA0005046FFF7BCF84E466D1C4545F5D3BDE8AE
:104EB000F09F70B5044625460121281DFFF74AF8EA
:104EC00070BD10B504462046FFF7C4F810BDF8B514
:104ED000044626460121301DFFF768F800906D4614
:104EE000287810B92046FFF7C4FFF8BD2DE9FC4132
:104EF00005460E4614461F46019401203B4601AA72
:104F0000314600902846FEF795FFBDE8FC812DE96B
:104F1000FC4105460E4614461F46019400203B46C0
:104F200001AA314600902846FEF784FFBDE8FC81C7
:104F30000021826891608268116182685161826893
:104F4000D1608268516082681160704770B5024616
:104F50000D4B03F58C7413E0E61AF01000EBD076DD
:104F6000761003EBC6010D68954201D90C4606E0A8
:104F7000954202D201F1080301E0486870BD00BF0C
:104F8000A342E9D30020F9E7EC66000030B50446FF
:104F90002046FFF7DBFF05460DB9024830BD284625
:104FA000FCE70000D86600000146D1F8C404C1F84F
:104FB000C40470470246505808B1012070470020D1
:104FC000FCE708B5002242504258009200BF08BDDD
:104FD000C0F808137047C0F804137047C0F80012F7
:104FE00070470122425070470146D1F88004C1F851
:104FF000800470470246505808B1012070470020D5
:10500000FCE708B5002242504258009200BF08BD9C
:10501000C0F80815C0F810257047C0F8081370478D
:10502000C0F8041370470246D2F80403084008B1E0
:10503000012070470020FCE7012242507047C0F871
:105040001425C0F80C1570470146D1F88004C1F84A
:10505000800470470246505808B101207047002074
:10506000FCE708B5002242504258009200BF08BD3C
:10507000C0F808154FF4A2631A507047C0F808131F
:105080007047C0F804137047014640F23C50405846
:105090007047D0F800228A43C0F8002270470122EE
:1050A0004250704740F20C53195040F214531A50BA
:1050B0007047000070B5044604B970BD024EA501EA
:1050C0002846B04700BFF8E7216600000146080BFC
:1050D00040B270470146080B40B270470146080BCA
:1050E00040B27047014601F06040B0F1005F01D16D
:1050F000012070470020FCE72DE9F04107460E46ED
:10510000384600F0A1FB0446BCB14FF00008002077
:10511000FCF7ACFE207910B14FF0010802E02660E8
:10512000012020710020FCF7A6FEB8F1000F03D08B
:1051300011252846BDE8F08100BF00252846F9E783
:1051400070B50546284600F07FFB044614B10020E8
:105150002060207170BD000010B50379C3EB03130C
:10516000064C04EB8301026800BF0523C2F800353A
:1051700000BF022381F82D3010BD00003401002053
:105180002DE9FF4F83B006460D4692463079C0EBBD
:1051900000103D4901EB800494F82D0028B14FF038
:1051A0000808404607B0BDE8F08F3279374B53F816
:1051B00022103068FFF7A0FF18B14FF011084046E9
:1051C000F0E7C4F800A0069860600020A06084F8B2
:1051D000300084F82F00687B84F838000020062116
:1051E000CDE900100323002211462868FFF731F9AA
:1051F00000200621CDE90010032300221146686833
:10520000FFF727F9D6F80090D5E90001C9F808059D
:10521000C9F80C1500BFA868C9F8240500BF2068AC
:1052200058B33068FFF752FF074695F80CB0384680
:105230005946002809DA4A074FEA126C144A00F06E
:105240000F031B1F02F803C003E04A07130E114AA5
:10525000135400BF00BF3068FFF738FF07463846D9
:1052600000F01F02012191404209920002F1E02268
:10527000C2F8001100BF00BF00BF012084F82D005C
:105280004FF0000840468DE73401002038660000EA
:1052900018ED00E000E400E0F0B585B007460C46EC
:1052A00015461E46142207496846FBF715F98DF886
:1052B00001400196039500226946384600F024F823
:1052C00005B0F0BD546600002DE9F04186B00746F8
:1052D0000C4615461E46DDF83080142101A8FBF768
:1052E00014F98DF8054002960495B8F1000F01D02D
:1052F000202000E00020024601A9384600F004F812
:1053000006B0BDE8F08100002DE9F04104460D46ED
:10531000164600272079C0EB0010064901EB8008F3
:1053200033462A464046216800F0BAFE0746384612
:10533000BDE8F0813401002010B50249024800F0B8
:10534000AFFF10BD70010020002000402DE9F041AA
:1053500005460E461746287900EB400101EBC000D8
:105360001A4901EB80044FF0000894F82A0020B19C
:105370004FF008084046BDE8F0812A79144B53F8F5
:1053800022102868FFF7B8FE18B14FF01108404608
:10539000F1E731462846FCF789FD676030692060F7
:1053A000606818B1317F2846FEF732FB2868042177
:1053B000C0F8001500BF0020A061E06184F829005A
:1053C0006061012084F82A004046D4E77001002083
:1053D000786600002DE9F04104460F46904620799A
:1053E00000EB400101EBC0001C4901EB80052046A9
:1053F00000F036F818B111263046BDE8F081C5F846
:105400001480AF600020286285F8280000264FF441
:105410008E712068FFF7F5FD08212068FFF70CFE6C
:105420002946206800F0B1FE6868A0B929462068C6
:1054300000F090FE08B90F260BE000BF4FF48E710C
:105440002068FFF7D7FD0028F8D00C212068FFF76F
:10545000F3FD002068613046CFE7000070010020B6
:105460000146087900EB400202EBC000044A02EB5F
:105470008000406908B1012070470020FCE700006F
:105480007001002070B50446207900EB400101EB6B
:10549000C0000C4901EB800520680021C0F8001510
:1054A00000BF686810B12046FEF77EFA204600F083
:1054B000D9F82068FFF744FE002085F82A006860CC
:1054C00070BD00007001002010B50249024800F0D4
:1054D000A9FF10BD9C010020002000402DE9F041F3
:1054E00005460E461746287900EBC000194901EB26
:1054F00080044FF0000894F8200020B14FF0080815
:105500004046BDE8F0812A79134B53F822102868F1
:10551000FFF7F2FD18B14FF011084046F1E73146B0
:105520002846FCF701FD676030692060606818B1AB
:10553000317F2846FEF7B0FA28680821C0F8001528
:1055400000BF0020A061E0616061012084F82000BC
:105550004046D6E79C010020A86600002DE9F047F0
:10556000044688469146207900EBC000244901EBAF
:1055700080054046FFF7B6FD18B910263046BDE855
:10558000F087204600F03EF810B111263046F6E7CD
:10559000C5F81490C5F8088000264FF49071206873
:1055A000FFF75FFD4FF4AC712068FFF75AFD2068EC
:1055B0006A69A968C0F844154FF4A9631A5000BF7E
:1055C00008212068FFF76BFD6868B0B900BF4FF491
:1055D00090712068FFF73EFD82464FF4AC71206861
:1055E000FFF738FD0746BAF1000F01D1002FEED0CA
:1055F00007B10F260020686100BF3046BFE70000FA
:105600009C0100200146087900EBC000044A02EB2F
:105610008000406908B1012070470020FCE70000CD
:105620009C01002070B50446207900EBC0000C49B5
:1056300001EB800520680021C0F8001500BF6868F4
:1056400010B12046FEF7CAF9204600F047F820685E
:10565000FFF776FD002085F82000686070BD00002F
:105660009C0100202DE9F04704462068D0F80C1575
:105670000D462068D0F814150E462068D0F808159D
:105680000F462068D0F810158846D4F800904FF0E7
:10569000FF3211464846FFF7D2FC00BFD4F8009015
:1056A0004FF0FF3211464846FFF7B2FC00BF681CBE
:1056B00010B12846FEF709FF701C10B13046FEF706
:1056C00004FF08F1010010B14046FEF7FEFE781C11
:1056D00010B13846FEF7F9FEBDE8F0872DE9F04736
:1056E0000446206840F20C5109580D46206840F2EB
:1056F000145109580E462068D0F808150F46206846
:105700004FF4A26109588846D4F800904FF0FF3258
:1057100011464846FFF7C6FC00BFD4F800904FF092
:10572000FF3211464846FFF7A3FC00BF681C10B1CA
:105730002846FEF7D6FE701C10B13046FEF7D1FEAB
:1057400008F1010010B14046FEF7CBFE781C10B105
:105750003846FEF7C6FEBDE8F087000070B5044687
:105760000D461646207A05280CD0607A28B10A48E2
:105770000AA102682846FEF751FD09A12846FEF756
:105780004DFD04E01EB106A12846FEF747FD284660
:10579000FEF759FD70BD0000B40000202573000025
:1057A0000D0A0000F8B504460D46E08838B116A091
:1057B0000090E38816A218A12846FEF72FFD207A54
:1057C00005281FD0607A58B1217AA088FEF7E0FF43
:1057D000174951F82060324616A12846FEF71EFDF3
:1057E0002846216800F076F9A0880021FFF772FAB8
:1057F0000646207A104951F8202033460FA128464A
:10580000FEF70CFDF8BD00001B5B306D00000000D2
:105810001B5B313B33316D0025734C6F6773206424
:10582000726F70706564202825642925730D0A0045
:10583000B400002025730000A00000203C25733E2A
:105840002025733A2000000001460348814201D11F
:10585000024870470020FCE7002000406400002060
:1058600010B5094908780978491C074A1170C11711
:1058700000EB91718910A0EB810111B9FBF730FAAF
:1058800001E0FBF707FB10BD0100002070B50546E5
:105890000C46A06940B94FF484712846FFF7B1FB6C
:1058A00000BFD5F8180570BD4FF484712846FFF786
:1058B000A8FB00BFD5F81805C0B2626AE168885439
:1058C000606A401C606200BFEDE77FB504460D468C
:1058D000164601208DF80000029501966846D4E92D
:1058E000001290477FBD7FB504460D461646012045
:1058F0008DF80000029501966846D4E900129047A1
:105900007FBD00002DE9F05F0E46174607F0FF0A45
:10591000002019490870194CB046D14683462078BA
:105920001749085C30B14A464146201DFFF716FE74
:1059300083460AE020781249085C30B94A4641465D
:1059400004F10C00FFF746FD83465D4600BF00BF33
:105950002C4634B100BF0B4A53212046FAF75AFCBB
:1059600000BF00BF00BF0848007818B102480078A7
:105970000028F8D0BDE8F09F8400002070000020CF
:1059800060000020846C0000850000202DE9F05F9D
:1059900005460E4690461F46DDF828904FEA154A08
:1059A000FDF7C2FD83464AEA0B42781C00EA090073
:1059B0000E4941F8202007EA090001EB8004206825
:1059C00065F3C5002060206868F3891020602068B6
:1059D00066F39F202060206820F00300401C2060B8
:1059E000206820F004002060BDE8F09F84030020C0
:1059F0002DE9FC478046894616461C4617488768AD
:105A0000012201A92046FDF703FDC8B1019800F16C
:105A1000020A00250AE056F8252050460AF1010A3C
:105A200038400E490C3141F820206D1CA542F2D3BC
:105A30000097224649464046019BFFF7A7FF00BF5B
:105A4000064890F8200430B100BF00BFFEF7D0FE3A
:105A50000028FBD100BFBDE8FC87000078030020D0
:105A60002DE9F04781460C4615469846002608F079
:105A70000100A0B105E0641C761C39464846FDF7DC
:105A800037FD2778002FF6D104E06D1E202148460F
:105A9000FDF72EFDB5421BD9002DF6D118E01CB143
:105AA0002046FAF73DFD064604E06D1E20214846DB
:105AB000FDF71EFDB54201D9002DF6D105E0641CAD
:105AC000761C39464846FDF713FD2778002FF6D19E
:105AD000BDE8F0877047000070B5044640F20C61E5
