:020000040001F9
:10F00000E062002015F401001DF401001FF401006E
:10F0100021F4010023F4010025F4010000000000A8
:10F0200000000000000000000000000027F40100C4
:10F0300029F40100000000002BF401002DF4010070
:10F04000710E02002FF4010015140200F1100200ED
:10F050002FF401002FF40100710C0200ED0E0200EC
:10F06000D9130200ED130200011402002FF4010075
:10F070002FF401002FF401002FF401002FF4010000
:10F080002FF40100C90E02002FF401002FF401003B
:10F09000011102002FF40100051102002FF40100FC
:10F0A0002FF401002FF401002FF401002FF40100D0
:10F0B0002FF401002FF40100000000000000000008
:10F0C0002FF401002FF401002FF401002FF40100B0
:10F0D0002FF401002FF40100590C02000000000081
:10F0E0000000000000000000000000000000000020
:10F0F0000000000000000000000000000000000010
:10F1000000000000000000000000000000000000FF
:10F1100000000000000000000000000000000000EF
:10F40000DFF80CD000F0F6FA00480047AD870200A4
:10F41000E06200200648804706480047FEE7FEE716
:10F42000FEE7FEE7FEE7FEE7FEE7FEE7FEE7FEE7B4
:10F430002911020001F4010040EA01039B0703D0F7
:10F4400009E008C9121F08C0042AFAD203E011F823
:10F45000013B00F8013B521EF9D27047D2B201E0E5
:10F4600000F8012B491EFBD270470022F6E710B5C9
:10F4700013460A4604461946FFF7F0FF204610BD22
:10F48000421C10F8011B0029FBD1801A704730B5CF
:10F4900004460020034600E05B1C934203D2E05C7C
:10F4A000CD5C401BF8D030BD034611F8012B00F8AD
:10F4B000012B002AF9D1184670472DE9FE4F8046EE
:10F4C00081EA0300C00F0C46009021F0004123F0B8
:10F4D0000045B8EB0200A94105D2404621469046BE
:10F4E0001C460B46024623F00040104347D0270D30
:10F4F000C7F30A00C3F30A510290401A0190402852
:10F500006BDAC3F3130040F4801B0098924620B1DD
:10F510000023D2EB030A63EB0B0B01985946C0F1B1
:10F520004002504600F042F906460D465046594604
:10F53000019A00F04AF910EB08006141002487EAC3
:10F54000115284EAE7731A4340D0009A62B3019AD9
:10F55000012A4FEA075215DC001B61EB02014FF054
:10F56000004202EA0752CDE90042001C41F5801139
:10F5700032462B4600F081F903B0BDE8F08F4046DB
:10F580002146F9E7001B61EB0201001C41F58013E5
:10F5900000185B412018A2F5001747EB030140EA71
:10F5A000D570B6196D4111E06D084FEA360645EA8F
:10F5B000C0754FEA0752001B61EB0201001C41F5C8
:10F5C000801149084FEA30000019514132462B465C
:10F5D00003B0BDE8F04F00F041B9009801224000AF
:10F5E0000023D0EB020263EBE073009821464FEA60
:10F5F000E074B8EB000061EB0401E9E783F000433D
:10F600005BE781F0004158E72DE9FE4F81EA0304F2
:10F6100004F0004421F0004100944FF0000B23F06F
:10F62000004350EA01045ED052EA03045BD0C3F306
:10F630000A54C1F30A552C44A4F2F3340194A0FBFC
:10F640000254C1F3130141F48011C3F3130343F4D3
:10F65000801301FB024400FB034E840A970A44EA2C
:10F66000815447EA8357A4FB076802958D0A05FB7E
:10F6700007854FEA932C04FB0C542705029D4FEAA3
:10F68000065847EA1637B5EB08056EEB070C870EF0
:10F69000920E47EA811742EA8312A7FB0201B6EBFA
:10F6A0000B0164EB00042B0D43EA0C335E1844EBB2
:10F6B0001C50DA465146E7FB0201C5F313044FEA3A
:10F6C0000B3343EA14534FEA0432019C43EA060326
:10F6D000A4F10C040294009CCDE900B400F0CDF834
:10F6E00003B0BDE8F08F00200146F9E700F00042CA
:10F6F00030F000400AD0C10D01F56071C0F3160072
:10F7000042EA0151C20840071143704700200146F8
:10F71000704701F0004330B421F0004150EA01028B
:10F7200006D00A0DA2F56072C1F31301002A02DCB3
:10F7300030BC00207047440F44EAC104C100E01807
:10F7400030BC00EBC25000F052B82DE9F05F054626
:10F75000002092469B4688460646814640241BE090
:10F76000284641464746224600F056F953465A4637
:10F77000C01A914110D311461846224600F016F8DF
:10F780002D1A67EB01084F4622460120002100F0A8
:10F790000DF817EB00094E41201EA4F10104DFDC37
:10F7A000484631462A464346BDE8F09F202A04DBFE
:10F7B000203A00FA02F1002070479140C2F1200384
:10F7C00020FA03F3194390407047202A06DBCB1739
:10F7D000203A41FA02F043EAE07306E041FA02F30C
:10F7E000D040C2F1200291400843194670470029D9
:10F7F000A8BF7047401C490008BF20F001007047B7
:10F8000010B4B0FA80FC00FA0CF050EA010404BF16
:10F8100010BC704749B1CCF1200421FA04F411FA6C
:10F820000CF118BF012121430843A3EB0C01CB1DB0
:10F830004FEA00614FEA102042BF002010BC704721
:10F8400000EBC35010440029A4BF10BC7047401CFB
:10F85000490008BF20F0010010BC704710B5141E0D
:10F8600073F1000408DA401C41F1000192185B4179
:10F870001A4301D120F0010010BD2DE9F04D924650
:10F880009B4611B1B1FA81F202E0B0FA80F2203267
:10F890009046FFF78BFF04460F4640EA0A0041EA14
:10F8A0000B0153465A46084313D0114653EA010050
:10F8B00019D0C8F14002504600F0AEF805460E4699
:10F8C000504659464246FFF771FF084305D00120D4
:10F8D00004E020463946BDE8F08D0020054346EAA5
:10F8E000E0762C4337430A986305E40AA0EB08004E
:10F8F0000022FD0A44EA47540A3002D5002001469E
:10F90000E9E7010510196941DDE908450019694178
:10F91000BDE8F04DA2E72DE9F04D81EA030404F0C3
:10F92000004B21F0004514464FF0000A23F000413F
:10F9300050EA050220D054EA01021DD0C5F30A574F
:10F940000246C5F31303C1F31300C1F30A5640F492
:10F95000801543F48013A7EB0608101BD64608F267
:10F96000FD3873EB050002D308F1010801E092189D
:10F970005B41B8F1000F03DA00200146BDE8F08DCD
:10F9800000204FF48011064684460EE0171B73EBEF
:10F99000050705D3121B63EB050306434CEA010C74
:10F9A00049084FEA300092185B4150EA0107EDD157
:10F9B00052EA030012D082EA040083EA05010843F8
:10F9C00005D0101BAB4106D20122002306E0002225
:10F9D0004FF0004302E06FF0010253101AEB0600F3
:10F9E0004CEB085110EB0A0041EB0B01BDE8F04D68
:10F9F000FFF734BF064C074D06E0E06840F0010316
:10FA000094E8070098471034AC42F6D3FFF7FCFCAB
:10FA10004CE302006CE30200202A04DB203A21FAC6
:10FA200002F00021704721FA02F3D040C2F1200217
:10FA300091400843194670472DE9F04D00231A46BE
:10FA40001B1A8A4103DB00200146BDE8F08DC1F39B
:10FA50000A52C1F3130141F480154FF0000BD10796
:10FA600002D100186D41521E0027044640F2FF11DA
:10FA7000384601EB620A3E468046024600204FF4BB
:10FA80008011FFF7C9FFC2197141BB1846EB010095
:10FA9000B4EB030C75EB000C04D3E41A65EB000522
:10FAA00017460E46241908F101006D41804634289E
:10FAB000E3DDF91946EB0600091BA84103D24FF01C
:10FAC000FF32134601E0002213461BEB070046EB12
:10FAD0000A51BDE8F04DFFF7C1BE70B58C1810F8A3
:10FAE000015B15F0070301D110F8013B2A1106D183
:10FAF00010F8012B03E010F8016B01F8016B5B1E9D
:10FB0000F9D12B0705D40023521E0DD401F8013B77
:10FB1000FAE710F8013BCB1A921C03E013F8015BE3
:10FB200001F8015B521EF9D5A142D8D3002070BD67
:10FB30002DE9F041624C00252DED068B65709FED9F
:10FB4000610A84ED0B0A84ED0C0A9FED5F9AF5EED5
:10FB5000008A84ED0D9AC4ED098AC4ED0A8ADFEDAE
:10FB60005B9A5B48C4ED0E9A2A469FED5A8A02EBD7
:10FB70004203002100EB031303EB8106491C49B249
:10FB800086ED008A0C29F7DB521C52B2062AEEDB06
:10FB9000B7EE00AA80ED20AA80ED13AA80ED06AA98
:10FBA000BFEE000A80ED470A80ED3A0A80ED2D0A8B
:10FBB000494805F0F3FF48484749243080ED00AA42
:10FBC00080ED038A80ED028A80ED018A00204C31AD
:10FBD00001F1300201F13C0301F1180601F10C07BB
:10FBE00001EB800C8CED008A02EB800C8CED008A1E
:10FBF00003EB800C8CED008A06EB800C8CED008A08
:10FC000007EB800C401C40B28CED008A0228E7DD37
:10FC100031489FED320AE83084ED068A80ED000A13
:10FC200080ED018A80ED028A94ED0D1ADFED2C0A39
:10FC3000002100F55B7261EE200A9FED2A1A00EEAA
:10FC4000A91A60EE800A84ED071A20EE801A9FED53
:10FC5000260AF0EE400A41EE290AC4ED080A01EB3B
:10FC60004103002002EB031303EB8006401C40B26B
:10FC700086ED008A0C28F7DB491C49B20C29EEDB23
:10FC80000020DFED1A0A00BF00EB400102EB01117A
:10FC900001EB8001401CC1ED000AC1ED278A81ED16
:10FCA000248A81ED038A81ED4E9A40B281ED750A76
:10FCB0000328E9DB2570BDEC068BBDE8F081000070
:10FCC000BC2300200AD7233C17B7D1389A99993E14
:10FCD0006841002000000000D43A00200000DC420F
:10FCE0000FB59F39D5E8D5389A99193F0AD7A33C63
:10FCF000084991ED000A80ED000A91ED010A80EDBE
:10FD0000010A91ED020A80ED020A91ED030A80EDED
:10FD1000030A7047F83A00202DE9F04F2DED068BCD
:10FD2000E9B0B0EE409AF0EE608A8DED4B9AB0EEFD
:10FD3000418ACDED4C8A8DED4D8AFE4D50A8C0EC28
:10FD4000061A287830B1FFF7F3FE69B0BDEC068BD8
:10FD5000BDE8F08FB0EEC30A10EE101AF6488142EB
:10FD600010DCB0EEE30A10EE101A81420ADCB0EEAD
:10FD7000C40A10EE101A814204DC68784FF0010BBF
:10FD800018B110E04FF0000B0DE0EA4950AB53AA58
:10FD90001831EA4806F060FCE849E848243105F0EB
:10FDA0008FFF01206870E5494C31A1F10C0091ED05
:10FDB000000A00F5F56239EE400A80ED000A91ED87
:10FDC000010A38EEC00A80ED010A91ED020A38EE10
:10FDD000400A80ED020A1C3859C882E8590095EDA6
:10FDE0000B0A00204BAA60AB02EB8004D349D4ED90
:10FDF000000A4C3101EB800494ED001A03EB8004FF
:10FE0000401C70EEC10A40B2022860EE800AC4EDC8
:10FE1000000AE9DDB7EE000A1946C94805F0F2FF0D
:10FE2000C74901F110000BF068FFC5491031A1F17D
:10FE3000340006F073F8C24B0020243BA3F2E462C6
:10FE400002F10C0101F10C0750ACD7ED001A97ED4F
:10FE5000021A53AEF6EE009A00EB400C03EB8C0C4A
:10FE600002EB80089CED020AB44F88ED000ADFF82F
:10FE7000CC82943708F1A00808EB8008D8ED000A7E
:10FE800007EB800860EEA90AC8ED000A04EB8008C1
:10FE900098ED002A07F1240808EB800872EE200A8A
:10FEA00070EEC00AC8ED000ADCED000A01EB800C20
:10FEB00060EEA10A40EE010ACCED000A06EB800CD0
:10FEC0009CED000A07F1300C0CEB800C30EE600A60
:10FED000401C40B28CED000A0228BDDDD2ED020AC2
:10FEE0009FED980A07F5C06420EE803A84ED013A50
:10FEF000D2ED010A9FED942AB1EE431A934E60EEC3
:10FF0000821AC4ED021AD2ED000A002260EE800AC5
:10FF1000C4ED0E0A84ED0C1AB1EE611A84ED181AC4
:10FF2000B1EE601A84ED191A91ED021A21EE001A51
:10FF300084ED251AD1ED012A22EE822A84ED262AAB
:10FF4000D1ED002A62EE802AB1EE410AC4ED322AD8
:10FF500084ED300AB1EE420A84ED3C0AB1EE620A49
:10FF600084ED3D0A95ED0C0A4FF07E5520EE433AA4
:10FF700060EE611A60EE600A84ED043AC4ED051A81
:10FF8000C4ED110AB1EE433A84ED0F3AF1EE611A75
:10FF9000C4ED1B1AF1EE600AC4ED1C0A60EE410AC2
:10FFA00020EE421A20EE620AC4ED280A84ED291AD6
:10FFB00084ED350AF1EE600AC4ED330AF1EE410A30
:10FFC000C4ED3F0AB1EE400A84ED400A9FED608A1D
:10FFD000A4F5107A02EB420302A800EBC300002153
:10FFE0000AEB031901EB410304EB031C80ED008ACB
:10FFF0004B460027D3ED000AF5EEC00AF1EE10FAE9
:020000040002F8
:1000000020D09CED000AB5EEC00AF1EE10FA19D02E
:1000100010EE108AA84504D190ED000A30EE200AB7
:1000200007E010EE108AB04506D190ED000A30EEE0
:10003000600A80ED000A05E090ED001A00EE801ADB
:1000400080ED001A7F1C7FB21B1D0CF1040C0C2FDD
:10005000D0DB491C49B2001D0629C3DB521C52B239
:100060000C2AB7DBDFF8D4A000210AF1F40A00BFA4
:1000700001EB41090AEB091000EB81000A4639E067
:1000800002AB03EB820C80ED008A04EB091700231E
:1000900097ED000AB5EEC00AF1EE10FA20D0DCEDC3
:1000A000000AF5EEC00AF1EE10FA19D010EE108A2F
:1000B000A84504D190ED000A30EE200A07E010EECA
:1000C000108AB04506D190ED000A30EE600A80ED4E
:1000D000000A05E090ED001A00EE201A80ED001AEB
:1000E0005B1C5BB23F1D0CF1180C0C2BD0DB521CBF
:1000F00052B2001D062AC3DB491C49B20629B7DBF0
:100100000C48DAED000A574690ED070A70EE800AB7
:10011000CAED000ADAED0D0A70EE800ACAED0D0A8A
:10012000DAED1A0A30EE800A8AED1A0ADAED270AA9
:1001300010E00000BC2300200000DC42D43A002084
:10014000AC42002035FA8E3C35FA8EBC000080BFF0
:100150000000000090ED080A0120002170EE800AE6
:10016000CAED270ADAED340A70EE800AC7ED340AC8
:10017000D7ED410A30EE800A87ED410A01E0002107
:1001800011E001EB410207EB021202EB800292ED5B
:10019000000A00EB400207EB021202EB8102491C4D
:1001A00082ED000A49B28142EBDB401C40B20628D6
:1001B000E5DB00200DF5B07100EB400207EB021209
:1001C00041F82020401C40B20628F5DB03200090B7
:1001D00065AB56AA63A958A806F0A6FBDFF858A499
:1001E00000200DF1080EB94600EB40010AEBC102F8
:1001F00000230EEBC10C00BF82ED008A614609EBC3
:1002000083074FF0000800BF91ED000AB5EEC00A69
:10021000F1EE10FA07D0D2ED000A97ED001A40EE89
:10022000010AC2ED000A08F101084FFA88F8091D19
:100230003037B8F1060FE7DB5B1C5BB2121D062BF3
:10024000DADB401C40B20C28CEDBFC48002100F178
:100250000C0C90ED022ADCED022A90ED010AD0EDA3
:10026000001AA0F13C03DCEC020AA0F16002A0F14C
:100270005408574601EB410C07EBCC0002EB810C14
:1002800090ED003AD0ED013ABA4623EE213A03EE62
:10029000803AD0ED023A03EE823A8CED003A90EDCE
:1002A000123AD0ED133A08EB810C23EE213A03EE1B
:1002B000803AD0ED143A03EE823A8CED003A90ED9C
:1002C000243AD0ED253ADFF874C323EE213AACF19D
:1002D000300C0CEB810C03EE803AD0ED263A03EEA5
:1002E000823A8CED003A90ED363AD0ED373A23EE73
:1002F000213A03EE803AD0ED383A03EE823AD0ED5F
:10030000393A03EEA03AD0ED3A3A03EE813AD0ED15
:100310003B3A03EB8100491C49B2022903EEA23AA1
:1003200080ED003AA6DDC5483C38BBF1000F90EDEA
:10033000000AD0ED011A20EE000A01EEA10AD0ED6C
:10034000021A01EEA10A09D0BD4910EE100A884236
:1003500001DD012700E0002717B14BE0002749E04D
:10036000DFF8D8E20021AEF1300ED44601EB4100B7
:100370000CEBC00002EB810390ED030AD0ED041AF0
:1003800020EE200A01EE810AD0ED051A01EEA20A44
:10039000D3ED001A30EE210A83ED000A90ED150A24
:1003A000D0ED161A08EB810320EE200A01EE810A37
:1003B000D0ED171A01EEA20AD3ED001A30EE210A91
:1003C00083ED000A90ED270AD0ED281A20EE200ACE
:1003D00001EE810AD0ED291A0EEB8100491C49B2C9
:1003E000022901EEA20AD0ED001A30EE210A80EDBA
:1003F000000ABBDD9149BFEE000A603901F5F060EB
:1004000005F000FD8F4A02F11001A1F2C4700BF05B
:10041000A7FC8A48943806F067FB88499439A1F113
:10042000240005F07BFD85498439A1F1100005F019
:10043000C9FD824900206C3901F14802434601F1AF
:100440003C0E00BF01EB800C03EB80089CED000A22
:10045000D8ED000A30EE600A8CED000A02EB800C49
:100460009CED000A0EEB800CDCED000ADFF8CCC13D
:10047000ACF1180C0CEB800C30EE600A401C40B262
:100480008CED000A0228DDDD6C489DED501AB8386D
:100490009DED512AD0ED010AD0ED042AD0ED004A9D
:1004A00060EE810A90ED034A64EE811A9DED520AD6
:1004B00042EE820AD0ED072A90ED023A44EE021A8B
:1004C000D0ED063A23EE011A42EE800AD0ED052A5D
:1004D00000F1AC0143EE801A02EE821A90ED082A78
:1004E000B7EE00AABBF1000F02EE001AB1EE610AEE
:1004F00081ED000AB1EE600A81ED010A3AEE410A8F
:1005000081ED020A60D0EFBB7C30D0ED000AD0ED67
:10051000011A90ED021A24EEA00A63EE200A0C38AC
:1005200000F1780704EE210A42EEA10A03EE810AE7
:1005300042EE010A80ED000AC0ED020A97ED021AB0
:1005400031EE609AD7ED000A70EEC08AF5EEC08AEF
:10055000F1EE10FA01D2F0EE488A29EE090A08EE0F
:10056000A80A01F099FDB5EEC00AF1EE10FA2BD001
:10057000CAEE000A344929EE209A68EEA08A19EEE4
:10058000100A00E020E09FED310A884202DD9FED75
:10059000309A06E019EE100A2E49884203D99FEDE1
:1005A0002E9AF0EE408AB0EE490A05F0C1FD2B48C4
:1005B00080ED060A9FED2A0A68EE800A29EE000AFD
:1005C000C7ED000A87ED020A24491431081F031FF2
:1005D000CDE9000119481A1F1039B83805F0FCFAA6
:1005E000DFF880E00021CB4601EB41021E4C0BEB13
:1005F0000210002304EB021C4FEA0E0980ED008A72
:10060000624609EB8307002492ED000AB5EEC00AAA
:10061000F1EE10FA3BD0D7ED000AF5EEC00AF1EE8C
:1006200010FA34D010EE108AA8451FD190ED000AC0
:1006300030EE200A22E00000083E00208C3B002023
:1006400000103D47AC420020CA03683F6D61D83EB0
:10065000CA03683FCA0368BFCA0368BFBC2300203F
:100660000000DC42283F00206841002010EE108A84
:10067000B04506D190ED000A30EE600A80ED000A28
:1006800005E090ED001A00EE201A80ED001A641CBF
:1006900064B2121D30370C2CB6DB5B1C5BB2001D44
:1006A0000C2BABDB491C49B206299DDB00204D46D3
:1006B00000EB400205EB021101EB800701465C46AE
:1006C0000AEBC20C1CE0624604EB81035FF00006FB
:1006D00093ED000AB5EEC00AF1EE10FA07D0D7ED9F
:1006E000000A92ED001A41EE400AC7ED000A761C9E
:1006F00076B2121D3033062EEADB491C49B23F1D8B
:100700000C29E0DB401C40B20C28D1DB5FF000007C
:1007100000EB400104EB011205EB011101EB80033A
:1007200002EB800293ED000A411C49B282ED000AFF
:100730000E460DE001EB410704EB071793ED000AAD
:1007400007EB8007491C87ED000A82ED000A49B2D9
:10075000121D1B1D0C29EDDB30460C2ED8DB0021B1
:1007600001EB4102002005EB021200BF02EB800307
:10077000401C40B283ED008A0C28F7DB491C49B2CB
:100780000C29EDDB23499FED244A9FED240AD1ED8E
:100790000E1AD1ED0D0AD1ED092A91ED0A2A91ED3B
:1007A0000C1A002000EB400104EB011202EB800266
:1007B00005EB011192ED273AD2ED003A01EB8001F1
:1007C00073EE214A33EE043A401C40B240EEA43AA4
:1007D0000328C1ED003A81ED273A21EE433A81ED3D
:1007E000243A81ED033AD2ED4E3AB0EE403A02EEB1
:1007F000A33A81ED4E3AD2ED753AB0EE693A02EE87
:10080000233A81ED753ACDDB69B0BDEC068BBDE8CE
:10081000F08F0000BC2300205F70893017B7D138FB
:10082000FEB50746002001900446029001201D46B7
:1008300016468DF804100346009001AA394609486F
:1008400008F026FF2B4601AA3946064808F00EFF9D
:1008500001A903E00A5D3255641CE4B2AC42F9D34D
:1008600040B2FEBD98E10200FEB500248DF80410F0
:1008700001A904E0155D0E19641C7570E4B29C4278
:10088000F8D3002100915B1C0146DBB201AA0248AB
:1008900008F0FEFE40B2FEBD98E1020006480549A0
:1008A00081600649C160064941611821017100203B
:1008B0007047000069080200883A00202108020001
:1008C000C508020008F08BBAFEB50746002001906B
:1008D0000446029001201D4616468DF8041003467A
:1008E000009001AA3946094808F0D2FE2B4601AA19
:1008F0003946064808F0BAFE01A903E00A5D325500
:10090000641CE4B2AC42F9D340B2FEBD98E10200EF
:10091000FEB500248DF8041001A904E0155D0E1940
:10092000641C7570E4B29C42F8D3002100915B1CFA
:100930000146DBB201AA024808F0AAFE40B2FEBDA1
:1009400098E102000648054981600649C1600649F0
:100950000161682141700020704700001109020008
:10096000C03A0020C90802006D09020008F037BA39
:10097000FEB50746002001900446029001201D4666
:1009800016468DF804100346009001AA394609481E
:1009900008F07EFE2B4601AA3946064808F066FE9E
:1009A00001A903E00A5D3255641CE4B2AC42F9D3FC
:1009B00040B2FEBD98E10200FEB500248DF804109F
:1009C00001A904E0155D0E19641C7570E4B29C4227
:1009D000F8D3002100915B1C0146DBB201AA02485A
:1009E00008F056FE40B2FEBD98E1020006480549F7
:1009F0004160064981600649C160102141700020B4
:100A000070470000B9090200A03A002071090200F5
:100A1000150A020008F0E3B910B501210C2008F016
:100A20007DFF01210C2008F079FF01211F2008F033
:100A300075FFFFF733FFFFF7D9FFFFF783FF1A4872
:100A400003F098FD04461848383803F0C9FA044406
:100A50001548203803F0A4FF204444B2200001D000
:100A600002F05AF9002003F0F7FB0444002003F0E1
:100A700017FE0444002004F0B3F804440D2003F0F2
:100A800073FB0444032003F05FFC0444012003F0E3
:100A9000C9FD0444032003F09FFE0444062004F033
:100AA00079F82044C0B210BDC03A0020064880ED5D
:100AB000020A80ED041A80ED062AC0ED010AC0ED9D
:100AC000031AC0ED052A70477C230020F0B589B0D9
:100AD00006A803F0ABFA684603F0D2FC03A804F0C2
:100AE00005F8BDF9183000EE103AB8EEC00ADFED97
:100AF000530A534820EE200A80ED0A0ABDF91A5025
:100B000000EE105AB8EEC00A20EE200A80ED0B0A63
:100B1000BDF91C4000EE104AB8EEC00A20EE200AD3
:100B200080ED0C0ABDF9002000EE102AB8EEC00AD4
:100B30009FED441A60EE011A9FED430A61EE801AA0
:100B4000C0ED0D1ABDF9021001EE901AF8EEE11A8F
:100B500061EE811A61EE801AC0ED0E1ABDF90460D3
:100B600001EE906AF8EEE11A21EE811A21EE001AE8
:100B700080ED0F1ABDF90C70D0ED011A01EE107A5C
:100B8000D0ED022AB8EEC12A9FED301A52EE011ABA
:100B900081EEA22ADFED2E1A62EE213AC0ED073A6D
:100BA000BDF90E7090ED043A02EE107AF8EEC22A0A
:100BB00090ED032A12EE812AC2EE032A9FED252A28
:100BC00022EE823A80ED083ABDF9107002EE107AFA
:100BD000F8EEC22A90ED052A12EE812AD0ED062AFF
:100BE00082EE221A21EE214A01EE104A80ED094AD6
:100BF000B8EEC11A61EE202A01EE105AB8EEC11A01
:100C000021EE202A01EE103AB8EEC11A04EE902A25
:100C100061EE201A00EE906AF8EEE44AF8EEE00A7F
:100C200020EE801A00EE901AF8EEE00A60EE800ADC
:100C300024EE800AFFF770F809B0F0BDCDCC1C3C63
:100C40007C23002098F98E3C90C1F93B9A99993EFB
:100C50000000C8420000C8C204480068F1EE101A43
:100C6000016C21F09F0101647047000038EF00E043
:100C70002DE9FC5F0025DFF83891A8464FF4807617
:100C800001242F46304608F07DFE38B1D9F8040320
:100C9000204203D0304608F06BFE2543361D640029
:100CA0007F1CB6B2082FEDD34FF4BE74204608F077
:100CB00069FE38B1204608F05BFE3E4845F000452D
:100CC000D0F800803C4E15F0FF0F15D0012700240E
:100CD0002F420DD009EB8401D1F81005D1F8101581
:100CE000C0F3042056F82420C1F3014102B190471B
:100CF0007F00641C082CEBD3002D56DA00200190F5
:100D0000401E4CE0701910F8501F90F9000021F0BF
:100D1000C004401C38D0012000FA04FA1AEA090F76
:100D200032D04FEA911B204604F038FC56F82000E0
:100D3000009010B9BBF1030F26D15146BBF1030F50
:100D400002D1019808430190A00000F1A040D0F822
:100D500000071AEA080FC0F3014002D0022802D0AF
:100D600012E0032810D1BBF1030F07D102281AD0DB
:100D70000221204608F0E5FD7F1CFFB2009818B163
:100D8000009A5946204690476D1C042DBAD3002F77
:100D90000BD008480068404507D0804601980027DE
:100DA00081463D46AEE70321E3E7BDE8FC9F000036
:100DB0000060004010050050342D002000F01F029C
:100DC000012191404009800000F1E020C0F880122C
:100DD000704700F01F02012191404009800000F19E
:100DE000E020C0F88011704700F01F0201219140FF
:100DF0004009800000F1E020C0F80011704700F0C9
:100E00001F02012191404009800000F1E020C0F85C
:100E10000011704700F01F0201219140400980003D
:100E200000F1E020C0F8001270474907090E0028C1
:100E300006DA00F00F0000F1E02080F8141D704782
:100E400000F1E02080F8001470470000BFF34F8FDE
:100E500005480168054A01F4E06111430160BFF3F0
:100E60004F8F00BFFDE700000CED00E00400FA0525
:100E70002DE9F0414FF48077384607F0A1FF0124B7
:100E8000104EA50748B1384607F0A1FF0120C5F86C
:100E900008037470002004F011FC4FF48277384688
:100EA00007F08EFF00280BD0384607F090FF022095
:100EB000C5F80803B470BDE8F041012004F0FEBBA2
:100EC000BDE8F081202D002007480021C0F8401126
:100ED000C0F84411C0F84811C0F84C11C0F8001116
:100EE000C0F804110CF05ABB001001402DE9FE437C
:100EF0004FF48278404609F04DF8504F0025504C91
:100F0000012600B3404609F04DF894F82B0010B1CB
:100F100094F82C10D1B18DF80050616801912189AD
:100F2000ADF80810E16829B16160A18A2181E5600E
:100F300018B103E084F8295000E03E60216868465B
:100F4000884784F82C5094F82B0098B34FF480779E
:100F5000384609F01FF868B3384609F023F8E28AEA
:100F600072B194F82A108A4210D9A2EB010080B223
:100F7000E0822289A2EB0000626802EB40000BE0F5
:100F8000208994F82A10A0EB0100F0E707D1E0686F
:100F900028B184F82C60E58208F0B6FF04E08A42AC
:100FA00002D184F82C60E582404608F0FBFF23481C
:100FB000001D06604FF48877384608F0EBFF50B10B
:100FC000384608F0EFFF84F8295002208DF8000021
:100FD0002168684688474FF48A77384608F0DAFF78
:100FE00030B1384608F0DEFF84F82950BDE8FE83B2
:100FF0004FF000484FF48C7927691CE0B7FA87F06E
:1010000028FA00F109EB80058F43284608F0C2FF5B
:1010100088B1284608F0C6FFA5F58C75E8088DF85C
:10102000040045F38000401C8DF800608DF8050039
:10103000216868468847002FE0D1D7E7007000405C
:10104000F82D00202DE9F047114F0446DDF82090DF
:1010500038781D461646884608B900F0E9F938691F
:10106000A04211D90A4904EB440001EBC00134B19C
:10107000C1F81880C1E90765002088624862002035
:10108000C1F82C90BDE8F0874FF0FF30FAE7000080
:10109000003A002070B50E46144900EB400001EB09
:1010A000C0051446E86A183520B101280FD002287F
:1010B00005D113E0284600F0EFF9A04201D2002448
:1010C00011E022463146284600F01EFA0BE0284681
:1010D00000F0E2F9A042F4D20446F2E73146284695
:1010E00000F0E5F90446204670BD0000003A0020FB
:1010F0000149024806F0A9BFAC2D00200030004095
:101100000CF0B2B9074810B5406830B180470028EC
:1011100007D0BDE8104001F0FFBDBDE8104006F06B
:10112000FBBE10BD582300202DE9F0419D4800234F
:10113000021D01780124101D4FF08056062907D1A9
:1011400015782D0704D10578C5F30315032D02D0BA
:10115000062904D00FE0954F934D7D670EE015787A
:101160002D0708D10578C5F30315032D06D0042DEE
:1011700004D0052D02D0062907D00EE0D6F844523F
:101180008B4FC5F342353D6002E015782D0704D141
:101190000578C5F30315032D02D0062906D011E00A
:1011A000844D2F6827F080772F600EE015782D078B
:1011B00008D10578C5F30315032D06D0042D04D0FE
:1011C000052D02D006290AD011E04FF08045C5F860
:1011D0000C31C5F81031764D2D1F2B6002E01578CB
:1011E0002D0704D10578C5F30315032D02D0062978
:1011F00005D00CE06E4F032564373D600AE015789A
:101200002D0704D10578C5F30315032D02D0062957
:101210000DD014E0684F05253D60674D78352C6092
:10122000654D08352B603F253F1D3D6002E0157878
:101230002D0704D10578C5F30315052D02D0062925
:1012400057D068E05D4909685D4A11605B49091D36
:101250000968121D1160594908310968121D116091
:1012600056490C310968121D116054491031096842
:10127000121D1160514914310968121D11604F4946
:10128000183109684E4A203211604C491C310968F6
:10129000121D1160494920310968121D116047492A
:1012A00024310968121D1160444928310968121D52
:1012B000116042492C310968121D11603F493031DB
:1012C00009683F4A403211603C4934310968121DB7
:1012D00011603A4938310968121D116037493C31B3
:1012E0000968121D1160354940310968121D1160ED
:1012F00002E0117809070ED10078C0F3031003282B
:1013000003D0042801D0052805D1D6F858022D496C
:1013100000F04F00086027487438016841F47001FC
:101320000160BFF34F8FBFF36F8F4FF01022D2F8E1
:101330000C022549C507254811D00C600468002C13
:10134000FCD0D2F80C4224F00104C2F80C4202682E
:10135000002AFCD00B6001680029FCD01AE0D2F80A
:101360000052002D03DBD2F80452002D14DA0C6079
:101370000468002CFCD01524C2F800420568002D3A
:10138000FCD0C2F804420268002AFCD00B6001685D
:101390000029FCD0FFF75AFD0E490D480860BDE852
:1013A000F0810000E00F00F00DF0ADBA00C0074082
:1013B0003C050040FCED00E0105600400404001025
:1013C00020C50040E40E004004E5014000E4014077
:1013D0000090D0030824002004220249024806F0AD
:1013E00013BE0000D42D00200080004004220249DA
:1013F000024806F009BE0000E02D002000900040E9
:1014000004220249024806F0FFBD0000EC2D002036
:1014100000A000400448017F04480029024901D08F
:101420000CF043BB0CF0B2BA8C2D00200020004021
:1014300010B5124C02202061606111A0A061A4F5DA
:101440008260E0614FF4806020620020A0626062F0
:101450000BA1A164E062A4F11001E16410212165F7
:10146000A0656065E06509A1E01DFEF71DF808A113
:101470002046FEF719F82020A07110BD003A002088
:101480005465726D696E616C000000005254540026
:1014900053454747455200000269C1688A4203D854
:1014A0008068401A104400E0501A401E70472DE931
:1014B000F047C4681746894606464FF00008306971
:1014C000A04201D9051B02E0B168201A0D1AB068CC
:1014D0006D1E001BA84200D80546BD4200D33D4604
:1014E00070682A4620444946FDF7A6FFB0687F1B76
:1014F0002C44A844A944A04200D10024F460002F49
:10150000DDD14046BDE8F0872DE9F041C6680446CC
:10151000174688468068851B6068BD4206D93044FE
:10152000FDF78AFFF019E060BDE8F0812A463044FB
:10153000FDF782FF7E1B08EB050132466068FDF770
:101540007BFFE660F0E700000FB4084B10B504A97C
:1015500002AA039800F056FF044602A9002001F0F9
:1015600082F9204610BC5DF814FB000067280200D9
:1015700003B401984100009850EAC12018BF04202C
:101580004A0D18BF40F0010040F2FF72B2EB515F0C
:1015900008BF40F00200012808BF052002B07047D4
:1015A0004100080218BF04200A0E18BF40F00100D5
:1015B0004FF07F4232EA010108BF40F002000128EB
:1015C00008BF05207047000010B510EE104A4FF01C
:1015D0001A402DED028B00EB4400B0F1C85F4AD8F1
:1015E0004FF0FC40B0EB440F22D2B0EEC00AF7EE51
:1015F000000A30EEC00AF6EE000A20EE208A18EE4D
:10160000100A0BF0E6FE00EE100A14F0004F1DBFAA
:101610009FED281ADFED280AB1EE400A9FED271A48
:1016200008BFF0EE410AF8EE001A20EE210A05E0AC
:1016300020EE008A9FED221ADFED220ADFED221A4A
:101640009FED222A70EEC00A20EE080A08EE212A39
:10165000DFED1F1A48EE021A9FED1E2A08EE212A1E
:10166000DFED1D1A48EE021ABDEC028B40EE610A56
:1016700030EE810A10BD4FF0CC40B0EB440F82BF7A
:101680009FED160ABDEC028B10BD4FF07F40B0EB12
:10169000440F05D2BDEC028BBDE8104000F0CCBD7C
:1016A000012000F0A9FEBDEC028BBDE8104000F067
:1016B000C7BD00000000494022AA7D3A000000009A
:1016C0000000C93F22AAFD3924FE1C3DC78AD83C30
:1016D0001E67383D1B93993DAFAA2A3EDB0FC93FD9
:1016E00070B5C1482DED020B2DED0E8B82B0119D12
:1016F00025F000449FEDBEDB9FEDBFEB84423EDB57
:10170000A4F140511098A1F17F6108430FD0BC486B
:10171000844202DC28D1109830B39DED100B02B04A
:10172000BDEC0E8B02B0BDE8704000F04EBD9DEDEB
:10173000100B53EC1D2B51EC100BFDF765FF9DEDCD
:10174000100B41EC180B53EC1E2B51EC100BFDF75A
:101750005BFF53EC182BFDF7B0FE41EC100B02B011
:10176000BDEC0E8B02B070BD012000F045FE02B052
:10177000BDEC0E8B02B0BDE8704000F03DBDA1484D
:101780009FEDA18B844256DA9DED100BB4F1795F89
:101790000ADA51EC100BFFF7EBFE042808BF00F04B
:1017A0003BFD9DED100BDAE753EC102B51EC100BC9
:1017B000FDF72AFF41EC190B95480621B0EE490AC6
:1017C000F0EE690A784400F084FC53EC192B51ECDC
:1017D000100BFDF719FF41EC1A0B8E48B0EE490AC9
:1017E000F0EE690A0421784400F073FC53EC192BE5
:1017F00051EC100BFDF708FF53EC182BFDF75DFEC5
:1018000041EC100B51EC1A0B53EC102BFEF783F844
:10181000CDE900019DED000B53EC102B9DED100B5D
:1018200051EC100BFDF7F0FE9DED101B53EC112B4E
:10183000FDF743FED2E09DED100B51EC100B04F0D0
:1018400023FC53EC182BFDF7DCFE9FED730BCDE969
:10185000000153EC102B9DED000B51EC100BFDF72C
:10186000D3FE41EC190B6E480621B0EE490AF0EEAA
:10187000690A784400F02DFC53EC192B51EC100B45
:10188000FDF7C2FE41EC1B0B6648B0EE490AF0EED4
:10189000690A0421784400F01CFC53EC192B51EC2C
:1018A000100BFDF7B1FE53EC182BFDF706FE41ECD3
:1018B0001C0B51EC190B0BF055FD41EC180B5A4861
:1018C0009FED5BABA04222DC53EC1C2B51EC1B0BBD
:1018D000FEF721F8CDE900019DED000B51EC180B4E
:1018E00053EC102BFDF790FE53EC182BFDF7E5FDA4
:1018F00053EC1A2BFDF788FE53EC1D2BFDF77EFEF3
:1019000053EC1E2BFDF77DFE41EC100B5FE08DEDDF
:10191000008B002000909DED000B51EC180B53EC58
:10192000102BFDF7CAFD9DED000B41EC1E0B53EC97
:10193000102B51EC100BFDF767FE53EC192BFDF744
:1019400060FE53EC1E2BFDF7E6FF41EC190B53EC48
:101950001C2B51EC1B0BFDF7DEFF41EC1B0B53EC7A
:101960001A2B51EC190BFDF74FFE53EC1D2BFDF715
:1019700048FE41EC190B53EC1A2B51EC180BFDF7F8
:1019800043FE53EC1B2BFDF73FFE53EC192BFDF7E9
:1019900035FE9DED000B41EC180B53EC1A2B51EC6E
:1019A000100BFDF731FE9FED249B53EC192BFDF737
:1019B00028FE41EC100B51EC180B53EC102BFDF7EB
:1019C0001DFE53EC192BFDF71CFE41EC100B002DF6
:1019D0003FF7C5AE51EC100B81F0004141EC100B0C
:1019E000BDE60000000000000000F03F0000000025
:1019F000075C143326A6913C182D4454FB21F93F73
:101A00000000F07F0000E03F000000000000F03F19
:101A100020CA00002ECA0000000000000000E03FC5
:101A200072C9000080C900003333EF3F000000009E
:101A30000000000000000040182D4454FB21E93F45
:101A400070B59B482DED020B2DED068B079D25F003
:101A50000044A04218DC9748844202DC0AD1069870
:101A600040B19DED060BBDEC068B02B0BDE87040A9
:101A700000F0ABBB002DCCBF9FED8F0B9FED900B0B
:101A8000BDEC068B02B070BD8F48A04215DD8F48BB
:101A9000A042D8BF4FF0FF3458DD9DED060B51EC4E
:101AA000100BFFF765FD042808BF00F0B5FB9DEDA6
:101AB000060BBDEC068B02B070BD9DED060B51EC24
:101AC000100B04F0E1FACDE9060181489FED828B0D
:101AD000A0423CDD8248A0421FDD00249FED82AB86
:101AE0009DED060B53EC1A2B51EC100BFDF7E5FCAA
:101AF0009DED060B41EC190B53EC1A2B51EC100B1E
:101B0000FDF782FD53EC182BFDF778FD53EC192BF4
:101B1000FDF701FFCDE9060149E09DED060B01242B
:101B200053EC182B51EC100BFDF7C7FC9DED060B89
:101B300041EC190B53EC182B51EC100BFDF75EFD2B
:101B400053EC192BFDF7E7FECDE906012FE06848BD
:101B5000A0421FDD02249FED689B9DED060B53EC18
:101B6000192B51EC100BFDF74FFD53EC182BFDF723
:101B7000A4FC9DED060B41EC180B53EC192B51EC1A
:101B8000100BFDF73BFD53EC182BFDF7C4FECDE920
:101B900006010CE09DED060B032453EC102B9FED8A
:101BA000580B51EC100BFDF7B6FECDE906019DED8B
:101BB000060B53EC102B51EC100BFDF725FD41ECFF
:101BC000180B53EC182BFDF71FFD41EC190B4E4879
:101BD0000621B0EE490AF0EE690A784400F079FA7D
:101BE00053EC182B51EC100BFDF70EFD41EC180BCC
:101BF0004648B0EE490AF0EE690A0521784400F043
:101C000068FA53EC192B51EC100BFDF7FDFC41EC7D
:101C1000100B51EC180B53EC102B002C0EDAFDF7C7
:101C20004CFC9DED061B53EC112BFDF7EDFC9DEDDF
:101C3000061B53EC112BFDF7E4FC35E0FDF73DFCF2
:101C40009DED061B53EC112BFDF7DEFC41EC100B58
:101C50002F48784400EBC40090ED001B51EC100BB2
:101C600053EC112BFDF7CAFC9DED061B53EC112B19
:101C7000FDF7C4FC41EC100B2648784400EBC4008F
:101C800090ED001B51EC100B53EC112BFDF7B9FC40
:101C900041EC100B002DA2BFBDEC068B02B070BD55
:101CA00051EC100B81F0004141EC100B01E70000FA
:101CB000000010440000F07F182D4454FB21F93F30
:101CC000182D4454FB21F9BF0000DC3F0000203EEA
:101CD0000000F33F00000000000000000000F03FA3
:101CE0000000E63F0000000000000000000000408F
:101CF0000080034000000000000000000000F83FEA
:101D0000000000000000F0BFC2C6000078C600005E
:101D100002C60000BAC5000070B56B4E2DED040B75
:101D20002DED028B82B0DDF81CC0DDE905235C429D
:101D30002CF000411C4341EAD474049D22F0004081
:101D4000B44205D86C422C4340EAD474B4420BD957
:101D50009DED061B9DED040B02B0BDEC028B04B0A3
:101D6000BDE8704000F03BBAACF14054A4F17F6490
:101D70001C430BD0022404EAAC7444EAD274054339
:101D80009FED538B9FED542B07D015E09DED040B79
:101D900051EC100B01F09EF942E0002C11BF012C18
:101DA0009DED040B02B0BDEC028B04BF04B070BD0E
:101DB000022C38D0032C3BD00B439FED491B9FEDE9
:101DC0004A0B0AD0B14218D1B04209D121F080416A
:101DD00020F08040079105900FE0002A15DA10E00E
:101DE000434B7B44002C08BF93ED000B0DD0012C1E
:101DF00010D0022C17D0032C1AD0B0421DD1002ACB
:101E000003DAB0EE410AF0EE610A02B0BDEC028BDB
:101E100004B070BD93ED000B51EC100B81F000414C
:101E200041EC100BF1E7B0EE480AF0EE680AECE77F
:101E3000B0EE420AF0EE620AE7E7401A00153C28CD
:101E4000C8BF8DED000B19DCBCF1000FBEBF10F157
:101E50003C0F9FED290B8DED000B0FDB9DED060B6D
:101E600053EC102B9DED040B51EC100BFDF753FDC3
:101E700004F00AF901F02EF9CDE90001002C08BFA9
:101E80009DED000BC1D0012C10D0022C9FED1C0B3E
:101E900053EC102B9DED000B51EC100B0DD0FDF70A
:101EA000ADFB53EC182BFDF7A9FBB9E7019880F0C7
:101EB000004001909DED000BA7E7FDF79FFB53EC61
:101EC000182BFDF79EFBABE70000F07F0000000041
:101ED000182D4454FB210940182D4454FB2109C0FE
:101EE000182D4454FB21F9BF182D4454FB21F93F10
:101EF000EAC4000000000000000000000000000034
:101F0000075C143326A6A13C00B510EE101A2DED87
:101F1000028B81B0524A6846B2EB410F2ED94FF086
:101F2000E640B0EB410F94BF00204FF0FF3000902F
:101F30000098B0EE408A00286ADB10F0010F4BD009
:101F400068EE080A9FED471A9FED470A00EE810AE6
:101F50009FED461A10F0020F00EE801AB7EE000A4D
:101F600000EE810A02BF01B0BDEC028B00BD00BFD4
:101F700001B0B1EE400ABDEC028B00BD3C4B21F03C
:101F80000042934241D911F0004FDFED3A0A20EEB2
:101F9000201ADFED390A19BF31EE601A71EE200AFE
:101FA00031EE201A71EE600ABDEEE01A11EE100A51
:101FB0009FED321A00F0030000EEC10A9FED301AC7
:101FC000009000EEC10A9FED2F1A00EEC10A9FEDAE
:101FD0002E1A00EEC10AABE728EE080A9FED2B1A75
:101FE000DFED2B0A10F0020F40EE410A9FED291A97
:101FF00000EE201A61EE000AB0EE480A08EE200A50
:10200000B6D101B0BDEC028B00BD00F029F98FE71D
:1020100018EE100A4000B0F17F4F0DD218EE100AF2
:10202000FFF7BEFA042808BF00F012F9B0EE480A24
:1020300001B0BDEC028B00BD09D1012000F0DCF93C
:1020400001B0BDEC028B5DF804EB00F0F9B801B013
:10205000B0EE480ABDEC028B5DF804EB00F0ECB882
:10206000B61F927EB93AB2BACA9F2A3DDDFFFFBEC3
:10207000490E494683F9223F0000004B0000C93F4A
:1020800000A0FD390020A2331A61342C336D4C3985
:10209000DA82083CA0AA2ABE10B52DED028BB1EE63
:1020A000C08A18EE100A20F00040C0F1FF40C00FB7
:1020B0000AD010EE100A20F00040C0F1FF40C00F1F
:1020C00004BF012000F098F9B0EE480ABDEC028B85
:1020D00010BD70B504462DED028B4D1E00EBC50002
:1020E000B0EE408AF0EE608A90ED000B35F006000D
:1020F00017D053EC182B51EC100BFDF785FA41EC7F
:10210000100B6D1E04EBC50090ED001B51EC100B85
:1021100053EC112BFDF7D1F941EC100B35F0060013
:10212000E7D1022D36D0042D1CD0062D1CBFBDECEE
:10213000028B70BD53EC182B51EC100BFDF764FAB9
:1021400094ED0A1B53EC112BFDF7B7F953EC182B48
:10215000FDF75AFA94ED081B53EC112BFDF7ADF97E
:1021600041EC100B53EC182B51EC100BFDF74CFA13
:1021700094ED061B53EC112BFDF79FF953EC182B34
:10218000FDF742FA94ED040B53EC102BFDF795F993
:1021900041EC100B53EC182B51EC100BFDF734FAFB
:1021A00094ED021B53EC112BFDF787F953EC182B20
:1021B000FDF72AFA94ED001B53EC112BFDF77DF986
:1021C000BDEC028B41EC100B70BD10B553EC102B25
:1021D00051EC100BFDF771F941EC100B10BD10B56F
:1021E00053EC112B51EC100BFDF767F941EC100B80
:1021F00010BD0000000000009FED050B10B553EC72
:10220000102B51EC100BFDF786FB41EC100B10BDB1
:1022100000000000000000009FED050B10B553EC1E
:10222000102B51EC100BFDF7EFF941EC100B10BD2A
:10223000000000000000001030EE000A70470000AF
:10224000DFED020A80EEA00A7047000000000000E7
:102250009FED020A20EE000A704700000000001007
:102260002DE9F0014FF07F42B2EB410F9FBF4FF0DD
:10227000FF310160BDE8F00170474FF0004242EAD3
:102280000123C1F3C752783A551112F01F0C434C89
:10229000CCF120067C44C1F3C752A2F178024FEA88
:1022A000621204EB820254F8254008BFD2E90156BD
:1022B00012D0556804FA0CF425FA06F73C439768E7
:1022C00005FA0CF527FA06F8D26807FA0CFCF2407A
:1022D00045EA08054CEA0206A4FB034CA5FB0352A1
:1022E000A6FB03631D449D4234BF0126002613193B
:1022F000334416B1934202D903E0934201D2012242
:1023000000E00022624402F1200C9206DC0C42EA5A
:10231000443200EE102A5B03DFED210AF8EEC01A0A
:1023200000EE103A4FEA9C1C11F0004FB8EE400A44
:10233000C0F800C020EE201A00EE105ADFED190A96
:10234000B8EE400A20EE200A71EE810A70EE800A93
:1023500010EE902A02F500626FF30B0200EE902A55
:1023600070EEE11A31EEC11ADFED101A30EE411AAB
:102370009FED0D0A20EE800A01EE210A9FED0C1A56
:1023800000EE810A04BFBDE8F0017047CCF1805136
:102390000160BDE8F001B1EE400A704740C00000A6
:1023A000000000360000802C22AAFD29DB0FC92F77
:1023B0000000C92F02E008C8121F08C1002AFAD184
:1023C00070477047002001E001C1121F002AFBD1B5
:1023D000704700000121202803DA814005480140B0
:1023E00003E0402802DA2038814009B1012070471B
:1023F00000207047FC06FFBC0149086070470000E0
:102400000C2400202DE9FF4F8DB00F460546002615
:1024100006E025280BD0DDE90F1290476D1C761CD5
:1024200028780028F5D111B03046BDE8F08F00249F
:10243000A246A1460122EC4900E0044315F8013F01
:10244000203B02FA03F00842F7D128782A2810D05E
:102450006FF02F022878A0F13001092914D80AEB77
:102460008A0102EB410144F0020400EB010A6D1CF9
:10247000F0E701CF5FEA000A03D544F40054CAF143
:10248000000A44F002046D1C28782E2817D115F894
:10249000010F44F004042A280ED06FF02F02287890
:1024A000A0F1300109290AD809EB890102EB4101A9
:1024B00000EB01096D1CF2E757F8049B6D1C2878AE
:1024C0006C280FD006DC4C2817D068280DD06A285D
:1024D00014D104E0742810D07A280FD10DE044F410
:1024E00000140AE044F4801401E044F440146978D4
:1024F000814202D104F580146D1C6D1C2A786E2A6D
:102500001FD00CDC632A31D004DC002A8BD0582A7F
:1025100011D1A3E0642A68D0692A0CD165E0732A3E
:102520002ED004DC6F2A73D0702A04D19BE0752A68
:102530006FD0782A6ED01046DDE90F129047761CD6
:1025400050E1C4F30250022806D0032809D0042821
:1025500001CF09D0066045E101CFF117C0E9006164
:1025600040E101CF06803DE106703BE117F8040B26
:102570008DF8000000208DF80100EB46012003E0FB
:1025800057F804BB4FF0FF3061074FF0000102D451
:102590000DE008F10101884649450FDA8045F8DB76
:1025A0001BF808100029F4D108E008F10101884661
:1025B0008142FADB1BF808100029F6D1DDE90F2370
:1025C000AAEB08008146214600F036F9304400EBC2
:1025D000080604E0DDE90F121BF8010B9047B8F183
:1025E0000108F7D221464846F7E00A21C4F3025316
:1025F0004FF0000B0891022B04D001CFC117032B21
:1026000009D00AE0FF1D27F00707F7E8020108E0FC
:1026100032E01FE020E000B2C117042B01D140B22C
:10262000C117031E71F1000307DA4FF0000CD0EB65
:102630000C006CEB01012D2302E0230504D52B23B4
:102640008DF82430012303E0E30701D02023F7E7CE
:10265000984658E00A2110E010210EE010204FF0BB
:10266000000B08900CE010214FF0000B44F0040424
:102670004FF00809089103E008214FF0000B089182
:10268000C4F30253022B04D001CF0021032B06D048
:1026900006E0FF1D27F00707F7E8020103E080B21C
:1026A000042B00D1C0B24FF0000823072BD5702AAD
:1026B00007D0DDF820C08CF0100C5CEA0B0C05D0C4
:1026C0000EE040238DF82430012308E050EA010396
:1026D00006D030238DF824308DF82520022398462B
:1026E000DDF820C08CF0080C5CEA0B0C0BD150EA32
:1026F000010301D1630706D530238DF824304FF054
:102700000108A9F10109582A04D038A20B9208AA9D
:102710000A920BE03AA2F9E75B46089AFDF715F832
:102720000B9B9B5C0A9A521E0A92137050EA01029C
:10273000F2D10A98ADEB000000F1200B600702D542
:1027400024F4803401E04FF00109D94502DDA9EB02
:102750000B0000E0002000EB0B0141440890AAEBC5
:10276000010AE00306D4DDE90F232146504600F0BC
:1027700063F806444FF0000908E009A911F80900C0
:10278000DDE90F12904709F10109761CC145F4DB20
:10279000E0030CD5DDE90F232146504600F04CF84C
:1027A000064404E0DDE90F1230209047761C0899BA
:1027B000481E08900029F5DC08E00A980A9900787C
:1027C000491C0A91DDE90F129047761CBBF100010C
:1027D000ABF1010BF1DC21465046DDE90F2300F09F
:1027E00019F806446D1C1BE609280100303132330C
:1027F000343536373839616263646566000000003D
:102800003031323334353637383941424344454626
:10281000000000002DE9F041044600251E46174641
:10282000880404D405E039462020B0476D1C641E9E
:10283000F9D52846BDE8F0812DE9F0410446002590
:102840001E469046C80301D5302700E020278804A3
:1028500004D505E041463846B0476D1C641EF9D5E5
:102860002846BDE8F0810A68531C0B601070704761
:1028700010B560B159B102780B785208B2EB530F22
:1028800005D10622401C491CFCF701FE08B10020BE
:1028900010BD012010BD2DE9FC4700251788064614
:1028A000158090F82D001446894630B13A462146ED
:1028B000484601F0EBF8050009D1B0784FF00C0A5A
:1028C00018B32088C846001DB84202D95046BDE85A
:1028D000FC87684679DF0028F9D12088032108F8B1
:1028E000001020881921401C80B2208008F80010B8
:1028F0002088401C80B2208000EB0801BDF8000059
:102900000BF04BF9218808442080F0780222C8B1EE
:10291000218896F9033001F1030C4846BC45D5D80F
:10292000425421884FF0010C491C89B2218000F8E3
:1029300001C02188491C89B2218009F80130208812
:10294000401C20807068B8B1218890F9003001F1F6
:10295000030C4846BC45B9D8425421880A22491C78
:1029600089B2218042542188491C89B2218009F80A
:1029700001302088401C2080308950B1CDE90047CB
:102980004B460622022106F108000BF05FF9050014
:102990009DD1308A50B1CDE900474B460722032133
:1029A00006F110000BF052F9050090D1308B50B1B8
:1029B000CDE900474B461522142106F118000BF013
:1029C00045F9050083D1306A30B13B46224649467D
:1029D00002F0DEFE0500DBD1706A30B13B462246D4
:1029E000494606F0D4F80500D2D196F82C0038B14B
:1029F0003B462246494630460AF0F0F80500C7D16A
:102A0000307838B13B4622464946304606F034F924
:102A10000500BDD128465AE7134A0021535C0BB18B
:102A2000012203E0491C0629F8D300220F4901289E
:102A300006D0022809D003280CD0042812D10DE0BA
:102A4000487810B10AB101207047887810B10AB1F6
:102A500002207047C87808B103207047087908B190
:102A6000042070470020704721220020D427002036
:102A700010B501220221002002F06AFB08B10728EC
:102A800010D107220221012002F062FB08B10728C1
:102A900008D100210A22084602F05AFB08B1072893
:102AA00000D1002010BD000010B598B0382101A859
:102AB000FCF7DBFC02218DF80410012405208DF8C1
:102AC00006408DF8070016480690ADF81440202106
:102AD0000FA8FCF7CAFC00208DF83C408DF83D4063
:102AE0008DF83E0011901290282013908DF83F40F1
:102AF0001E2014908DF840404FF448601590B4208B
:102B0000169008480090084B0FAA002101A800F079
:102B100061FC002801D000F0FFF818B010BD0000E3
:102B20003A210020D133020089A002002DE9F047AC
:102B30004FF6FF76324610211F48FCF78FFC1F4CE2
:102B400008200546E062DFF8708004F12C07B146EA
:102B5000304608F09BFD0026BA463E604F460AE02C
:102B6000DAF800104FEA410C491CCAF8001028F8A6
:102B70000C0008F08BFDB84201D06D1EF0D20E485B
:102B8000E16A09F051F808B100F0C6F80A48E16AB4
:102B900008F014FC062802D008B100F0BDF86671F8
:102BA000032000F01FFD002803D0BDE8F04700F02F
:102BB000B3B8BDE8F0870000582700202821002086
:102BC00070B58CB015460E4600236C46C3F10F015C
:102BD000415CE1545B1C102BF8D30D2104F1100073
:102BE000FCF743FC0020C0F10F02315C2244401C82
:102BF00011740328F7D3684643DF0020C0F10F01AA
:102C0000214491F820102954401C0328F6D30CB01D
:102C100070BD0000064800684FF08061044A81439F
:102C2000121D1160111D00F08060086070470000E7
:102C30000405005070B50024064D06E068680121C7
:102C400010F8340006F006FA641C28788442F5D3A4
:102C5000002070BDE8220020F8B515460C46064657
:102C6000052A01D20720F8BD06F0DAFA18B906F0F5
:102C7000A9FA0028F7D1104900204E600C70C1E974
:102C800002500E4D08610DE006EBC400696800912A
:102C900081788DF801100078094A694606F02CFA0F
:102CA0000028E0D1641EE4B2EED2BDE8F840054A47
:102CB0000021024800F0C2B8E822002038E10200FA
:102CC000E5730200155902000BA1012007F0AEF8D0
:102CD00006F0BAFF06F0BCFF0028FBD100BEBFF330
:102CE0004F8F0B4801680B4A01F4E061114301600A
:102CF000BFF34F8F00BFFDE74150505F4552524F29
:102D0000523A4552524F523A466174616C0D0A0074
:102D10000CED00E00400FA050EB500210091CDE9AC
:102D200001106A4644F20100FFF7CEFF0EBD00001D
:102D30002DE9F84F254C8146924660880E46814227
:102D400041D800274FF6FF788DF80070684600F0F4
:102D50002DF922786078A188884201DA401C00E0D1
:102D60000020C0B2904204D19DF8000000F042F96A
:102D700027E065786078884201DA401C00E0002096
:102D800060709DF8000000F035F9454519D0A06845
:102D9000B9F1000F40F835A00DD066B16188E06848
:102DA000324605FB01004946FCF746FBA06800EBF4
:102DB000C500868002E000EBC50087800020BDE8EA
:102DC000F88F0420FBE70920F9E70000FC2200202F
:102DD00010B50E4C03E0401C00E00020207020786D
:102DE0006178814210D022786188E068A36802FB94
:102DF000010003EBC20153F8322089889047207804
:102E0000A1888842E9DAE6E710BD0000FC22002034
:102E100030B5CB0008339DB293074FF0000401D0CA
:102E2000072030BD044B9A602A44DA605C701C7045
:102E300058809980002030BDFC220020084B5B6840
:102E400023B12AB120B10068037C1BB10820704770
:102E5000072070470023037441744261184670478D
:102E60001C23002010B50446082902D00020FFF7DB
:102E700053FFD4E90010BDE8104008471CB5044AD0
:102E8000CDE9000108216846FFF752FF1CBD000094
:102E9000652E02002DE9F0470746984614468946FC
:102EA00090074FF0000526D12CB309F035FB134EE7
:102EB00006F11000C6F80C800570457080F802908D
:102EC00044607560357075701420FDF777FF06213A
:102ED0001420FDF7AAFF1420FDF786FF08480760BD
:102EE00006211120FDF7A1FF0548001F0068B06012
:102EF0000020BDE8F0870720FBE700000C2300203E
:102F0000081501402DE9FC47DFF87890D9F8043026
:102F100073B368B3052902D20720BDE8FC87436973
:102F200033B3437C012B25D0002704460025884677
:102F300016468DF80050684600F038F801A80AF0EF
:102F40006DFEC8B1012101700F4944600968C0E9F4
:102F50000218C0E904769DF8040089F801009DF884
:102F6000000000F047F81420FDF754FF2846D4E78E
:102F70000820D2E70F46D8E704259DF8000000F0AE
:102F800039F8F3E71C23002004150140064949687D
:102F900039B130B1416921B10021017402210AF037
:102FA000D9BA0820704700001C23002030B5EFF389
:102FB000108172B60D4A9468012324B10370002970
:102FC00000D162B630BD93604FF0E023D3F880515A
:102FD000074C25401560C3F88041D3F88441546004
:102FE0005A17C3F8842100220270E8E7482E002017
:102FF000FC06FFBC0B498A68002A11D000280FD1BB
:10300000EFF3108072B60B684FF0E022C2F8003187
:103010004B68C2F8043100228A60002800D162B6F1
:1030200070470000482E00202DE9F0410546087841
:10303000214F012606FA00F00C463860086806F0B9
:1030400076FC0021606806F060FC28791B4901EBE2
:103050004010A169007F00282868C0F8241519D005
:10306000607D217D2A680843C2F86C0518E00021C4
:10307000A06806F04AFC207B86403E60E06806F0CF
:1030800056FCD4E902122868C0F80825C0F81015CB
:10309000BDE8F081607D227D29681043C1F86C0590
:1030A000D4E900122868C0F80C15C0F81425207D5A
:1030B0000128DCD0ECE70000080500508C2D002032
:1030C0000349084201D101207047002070470000E9
:1030D00000C0F0FF10B541EC100BFEF7B1FC51EC55
:1030E000100B10BD2DE9F043044687B0008800F0B6
:1030F00069FC8146208804F0EFFD214F8046667A06
:10310000208800223978A56800F0AAFCB9F1000FE8
:1031100033D06079400711D50721404607F03CFDC8
:10312000A0B108218DF80C1021880590ADF80E1083
:10313000ADF8108003A802F01DFD07E02088B978E3
:1031400000F07AFC10B1404604F0B2FD03208DF887
:1031500000002088ADF802006079C0F380008DF88F
:103160000400A079C0F380008DF805008DF80650AA
:103170008DF80760684602F0FDFC07B0BDE8F083FB
:103180007C22002000B585B014216846FCF76DF95B
:1031900000200090029064208DF80C009DF80D0036
:1031A000012120F00F00401C20F0F00020308DF8AD
:1031B0000D009DF80E008DF8041020F00F00401C4B
:1031C00020F0F00020308DF80E009DF80F006946C9
:1031D00020F0FF008DF80F009DF8100020F00F0088
:1031E000401C20F0F00020308DF81000044800F062
:1031F0008BFA002801D0FFF78FFD05B000BD00005D
:10320000302700202DE9F0430546007D93B00E469F
:103210000024A0B107949DF81C0020F00F00401C72
:1032200020F0F00010308DF81C00707B8DF81D0030
:103230009DF81E0020F00600801C8DF81E001C2149
:103240006846FCF712F99DF8000040F002008DF886
:103250000000297D11B140F0100001E020F01000C5
:103260008DF80000019403940494287D00B107A810
:10327000CDE9050401278DF8427042F61920ADF81A
:1032800040000D94B07B8DF83400F07B8DF8350054
:103290009DF83600142120F00600801C20F0190053
:1032A0008DF83600307B8DF8440008A8FCF7DDF877
:1032B0000DF140080DF13409ADF8287011A8CDE9E1
:1032C0000889ADF82A40ADF82C700C90A888AB1D89
:1032D00008AA6946A2DF002838D1B06898B38DF8F3
:1032E000427042F60810ADF840000D94307C8DF825
:1032F00034009DF8350020F0FF008DF835009DF872
:10330000360020F00600801C20F019008DF83600F1
:103310000EA8B16800F025FE0646142108A8FCF7A7
:10332000A4F8ADF828600EA8CDE90889ADF82A40C8
:10333000ADF82C600C90E88805F10E0208A9A3DF17
:10334000002803D101E0FFE7EC81002013B0BDE8C5
:10335000F083000003484178002901D10121417028
:103360007047000028210020F0B50C4693B01F21C3
:103370000726ADF80010ADF80410002750B1C17851
:1033800049070DD56A4602A9FFF785FA002808D13A
:1033900002AD02E00025ADF800706CB1E07810B12C
:1033A000304613B0F0BD01AA0AA92046FFF773FA10
:1033B0000028F6D10AAA02E00022ADF80470BDF898
:1033C0000400C3B2BDF80000C1B2284672DFE8E7CE
:1033D000FFF7A2BC2DE9F0471F46DDF82080134619
:1033E0008946040042D0EBB3404D012000262870EE
:1033F000EE70202219463E48FCF71EF8C5E9047815
:103400004FF6FF702881AE613948AE83AE77382120
:103410002030FCF72AF83648217820300170A17856
:103420008170E178C170617841703149D4E9042339
:10343000C1E90C23D4E90223C1E90A23D4E9062314
:10344000C1E90E23616AE1B100F1380100F14402E3
:1034500041628A60636A1B880B80616A436A89885B
:10346000998000E002E00021436A07E00E20BDE8F9
:10347000F087656AAD686D5C5554491C9D888D4226
:10348000F7D8A16AD9B11A4A9032A2F10C018A6028
:103490008162A36A9B888B80A16A836A09881980EC
:1034A0000021836A04E0A56AAD686D5C5554491C2F
:1034B0009D888D42F7D894F82C1080F82C10216A42
:1034C00049B10A490A310162226A52884A80216A56
:1034D000026A09881180616801B141604946BDE80E
:1034E000F04703482030FFF73FBF000008220020CC
:1034F000D427002010B50188144C102918D01129A8
:103500001CD01B2919D1007A002816D1E07805219A
:10351000401CB0FBF1F201FB120000BF00F062F8AA
:1035200000280AD06169002907D0BDE8104008478B
:10353000C17B012901D18088208110BD00216171EA
:10354000808821898842F8D10120E7E708220020FD
:1035500010B5022801D0032810D1094C607800284A
:103560000CD000206070E07800F03CF8002805D016
:103570006169002902D0BDE81040084710BD000075
:103580000822002007490A794AB100220A7102681C
:103590008A6182888A838079887700207047082032
:1035A000704700000822002010B574DF0B4C01208A
:1035B0000B4960710020E0710620C87000210848A6
:1035C000FFF7D2FE002807D1E07800F00BF810B129
:1035D000616901B18847002010BD00000822002069
:1035E000F42700202DE9F0413D4C804686B020783C
:1035F00048B184F8038004A803F06EFB0498012608
:1036000028B1667067E0082006B0BDE8F0810025AB
:10361000A561344FA583A577787810B1E0780128AB
:1036200006D0B87858B1E078012801D0022806D138
:10363000216919B126710820884700E025714046AC
:10364000FFF7EAF9E070216939B1032801D00428B5
:1036500003D1387808B1607990B1A57100950295D1
:10366000019503958DF800508DF808501C48E178BD
:103670001830052925D2DFE801F03008111D21009E
:10368000E571A67107208847E8E7A67001908DF8DC
:103690000060ADF80C50ADF80A5014E00221A170A2
:1036A00001908DF80060B889ADF80C003889ADF84C
:1036B0000A0008E0684609F0D7FA02E0684609F017
:1036C000F7FAE07818B1684673DF00289CD12169C9
:1036D00009B1A0788847002096E7A570F7E70000B9
:1036E00008220020D4270020064882793AB100221F
:1036F0008271194300D00121C17100207047082058
:10370000704700000822002038B50D4604001BD089
:10371000D5B1286820604FF6FF7060822879207547
:10372000FF20207401208DF8020041F60F00ADF853
:103730000000221D69460120A0DF002803D1294690
:103740002046FFF75FFD38BD0E2038BD38B5002894
:1037500023D0002921D00A88102A19D0112A19D083
:10376000502A1AD10446007D002816D031F8060FE1
:103770006289904211D1488902280ED12068002820
:103780000BD001F10C0000F0E8FB38B1002006E09E
:10379000898801E04FF6FF71418238BD01208DF824
:1037A0000000226869462046904738BD70B505463E
:1037B00001461C220F48FBF73FFE0F4C00262670E7
:1037C000286830B1016861604068A060201D7ADF20
:1037D00002E00948001D7BDF00280AD14FF6FF7088
:1037E00060806670BDE87040044A00210448FFF71D
:1037F00025BB70BDA428002028220020A5DB0200E4
:1038000094E0020070B51E4C068800231B49E28933
:10381000102E15D01B4D112E1CD0122E29D0502E3B
:1038200017D130F8061F914213D14189022910D1D6
:103830000C3000F092FB88B1BDE8704001F0EEBFA3
:1038400084884C800469CC60406908614B70002A10
:10385000F2D070BD4FF6FF7048804B702868FFF7BC
:1038600095FB0028F5D0A1690029F2D0BDE8704091
:1038700008478268CA60C0680861DDE72822002026
:10388000A428002094E0020002490A7D091D08F0E6
:10389000B3BF0000C028002002460248C17D001DC1
:1038A00008F097BFC028002002460248017E001D94
:1038B00008F08FBFC02800202DE9F0470446038898
:1038C0003F4801228CB000F1150A102B09D0112BB2
:1038D00055D01A2B71D1217AB2EB111F54D201238A
:1038E00053E0027D417D05468A43011D06A808F08C
:1038F00083FF142206A901A8FBF79EFDDFF8C09004
:103900000026374609F114090DF104080AE000BF4A
:1039100008EB46001D2283884946281D009708F0C1
:103920001DFF761C0198B042F2D8287DA688C043BE
:10393000C0B208F035FFA0F57F41FF3917D005EB85
:1039400040000123868032465146281D08F079FF49
:10395000012332464946281D08F073FFE07B022808
:103960000BD000231649A2881631281D20E00CB088
:103970000420BDE8F047FFF7CFB90123F2E70023A9
:10398000A2885146001D13E000230D490546A28878
:103990001731001D08F055FF207A0221B1EB101FEE
:1039A00001D2012300E000230549A2881831281D17
:1039B0000CB0BDE8F04708F044BF0CB0BDE8F0879C
:1039C000C028002070B50A4E05460024317D2A46E5
:1039D000301D08F0FEFE40B1B17D2A46301D08F0D2
:1039E000F8FE08B1022400E00124204670BD00006A
:1039F000C028002010B5002420460AF003F928B1A1
:103A0000641CE4B2182CF7D3182010BD034801221F
:103A1000A240016811430160204610BDC02800206B
:103A200010B504460AF0EEF8002802D00148204400
:103A3000407E10BDC028002070B505460C460846E3
:103A40000AF0E0F8002808D004482A460119001DB1
:103A5000497EBDE8704008F0BCBE70BDC0280020A3
:103A600070B5064615460C4608460AF0CBF8002805
:103A700009D005482B4601193246BDE87040001DAB
:103A8000193108F0DEBE70BDC02800207CB50546A7
:103A900008880C460930904201D90C207CBD68464C
:103AA0006DDF0028FAD121880820685420881B2166
:103AB000401C80B2208029542088401C80B2208085
:103AC0002844DDF801100160BDF8051081802088D0
:103AD000801D80B220809DF80010490800D001218F
:103AE00029542088401C208000207CBD7FB50446DE
:103AF00001208DF8060041F60A00ADF80400454AA1
:103B000001A90120A0DF00287ED1228804F13C0514
:103B100052B140482B46801C009042F62920616833
:103B200001F044FD002873D1228952B139482B4657
:103B30000A30009042F62420E16801F037FD0028A9
:103B400066D1228A52B133482B461230009042F699
:103B50002520616901F02AFD002859D1228B52B13C
:103B60002C482B461A30009042F62720E16901F0DC
:103B70001DFD00284CD1228C52B126482B46223004
:103B8000009042F62620616A01F010FD00283FD126
:103B9000228D52B11F482B462A30009042F6282031
:103BA000E16A01F003FD002832D1216B71B102A856
:103BB00009F037FC17482B4632300090082202A942
:103BC00042F6232001F0F2FC002821D1606B58B1AD
:103BD00010492B463A3100910279016842F62A20B9
:103BE00001F0E4FC002813D1A16B81B102A808F018
:103BF00025F808482B4642300090072202A942F6D9
:103C0000502001F0D3FC00E002E0002800D10020A9
:103C100004B070BD9622002010B50446FFF74CFE9C
:103C2000204607F03DFD204601F0B4F9204606F09D
:103C3000F1FA2046FFF75EFC2046FFF7E3FD214640
:103C4000044800F032F92146BDE810400248FFF771
:103C50007DBD0000B825002030270020F0B50546C6
:103C600087B01646B5F87641DDE90C20A4F57F470C
:103C7000FF3F2FD0D41CA7B2ADF80070082F26D874
:103C80008DF814108DF815608DF8163005AE1AB148
:103C90000146F01CFBF7D0FB00200190029003903E
:103CA0000490B5F85E11ADF8041001218DF80610EE
:103CB000ADF808006846CDE90306B5F8760101A91C
:103CC000A6DF002804D1BDF80010A14200D00C20CE
:103CD00007B0F0BD0820FBE7F0B50546887A85B04F
:103CE0000C460A2805D8207C0A2802D8207E0A28FB
:103CF00002D9072005B0F0BD2068286060686860C0
:103D0000A07AA874207C85F87800207E85F8DE00F3
:103D10004FF6FF70A5F8760101208DF80E0041F6F0
:103D20001200ADF80C0005F1080203A90120A0DF84
:103D30000028DFD1002609E0A06B6A4630F8161093
:103D40002889A1DF0028D5D1761CF6B294F8360078
:103D5000B042F1D8207A002708B9607A30B104F176
:103D60003C01284607F084FF0028C3D1214628469D
:103D700004F096F80028BDD12146284606F012FC32
:103D80000028B7D1207E30B3E06920B300261FE0C1
:103D9000E069049700EBC6039DF8100006EB86016E
:103DA00040F00A008DF8100005EB4100D979E030B1
:103DB00001F00102191D0091CDE9012033F8022B19
:103DC00004A9284608F02EFA002893D1761CF6B2F2
:103DD000207EB042DCD82146284608F0BCFA0028F4
:103DE00088D1207A90B105F5A770009004F14303C3
:103DF000082242F62221284600F0FAFF002898D136
:103E00002146284601F05CF8002892D1607A60B122
:103E100005F5AF70009004F14003082242F633210B
:103E2000284600F0E5FF00288DD12146284603F002
:103E300048FC002887D104F13E01284603F0FCFB32
:103E400058E730B51446827C85B08A422BD901EB05
:103E50008101B0F8762100EB41011431A2F57F45D4
:103E6000FF3D1ED00022ADF8004001920292039265
:103E700004920988ADF8041001218DF80610ADF800
:103E800008206946CDE90313B0F8760101A9A6DF41
:103E9000002804D1BDF80010A14200D00C2005B0CC
:103EA00030BD0820FBE70720F9E730B50446088855
:103EB00087B0102820D011283BD050283ED0512860
:103EC00018D10D4611F8060F012813D1498801AA0F
:103ED000204608F0DFFA00280CD02168204600298F
:103EE00008D007218DF80810019906950391026802
:103EF00002A9904707B030BD8888A4F87601608990
:103F00000028F7D0012000210091ADF800008DF8C5
:103F1000080002A8ADF8021001906189B4F876019A
:103F20006A46A4DF0028E5D061680029E2D088470E
:103F3000E0E74FF6FF70A4F87601DBE707B0204614
:103F4000BDE8304006F070BA70B504460D4608462C
:103F5000FBF796FA2080656070BD007800F00100E4
:103F600070470A780270497841700220704700005B
:103F700000B5164889B0164B406807905022154985
:103F800007A809F0ADF908B1FEF7C6FE6A4601219F
:103F9000002009F07FF908B1FEF7BEFE1720ADF84A
:103FA0001000684609F008F908B1FEF7B5FE0A48A6
:103FB00009F0F8F808B1FEF7AFFE084809F0C8F9B3
:103FC000002801D0FEF7A8FE09B000BD50E00200B5
:103FD000CDD20200B8240020193C020011D4020006
:103FE0007CB50021104C8DF800108DF80410606035
:103FF000011E16D008790123CD686A460021A84722
:10400000616805469DF800004870012201A93E2024
:1040100000F096F8626828449DF8041040B251718F
:104020007CBD6FF07E007CBD6C2300207CB5044617
:104030000020424A0090019050684FF0FF3130B1AB
:1040400012783AB1012A2BD0022A75D14EE06FF0D6
:104050007E007CBD06790623C5686A46022130468B
:10406000A84701469DF800009DF9012000F0F000EE
:1040700040EA0220001120809DF802009DF90320F3
:1040800000F0F00040EA0220001160809DF804007A
:104090009DF9052000F0F00040EA022000114AE0FE
:1040A00006790623C5686A4602213046A8470146BC
:1040B0009DF800009DF9012000F0C00040EA0220B8
:1040C000801120809DF802009DF9032000F0C000BF
:1040D00040EA0220801160809DF804009DF90520CF
:1040E00000F0C00040EA0220801124E00579062398
:1040F000C6686A4602212846B04701469DF800007E
:104100009DF9012000F0FC0040EA02208010208090
:104110009DF802009DF9032000F0FC0040EA022017
:10412000801060809DF804009DF9052000F0FC00DF
:1041300040EA02208010A08008467CBD6C2300204D
:10414000F0B406460748406840B105791346C46894
:104150000A4631462846A446F0BC6047F0BC6FF0E2
:104160007E0070476C23002038B500218DF80010C8
:104170000C462349496841B14B7808386FF0010279
:10418000FB2B05D0082823D320E06FF07E0038BD3C
:1041900007281BD205D2DFE800F0232527292B2D85
:1041A0002F0008790123CD686A461021A8470546EB
:1041B0009DF80000012264F304008DF800006946B8
:1041C000102000F00DF9284440B238BD104638BD2B
:1041D0000828E6D2DFE800F00406080A0C0E1012E8
:1041E0000824DEE70924DCE70A24DAE70B24D8E711
:1041F0000C24D6E70D24D4E70E24D2E70F24D0E711
:104200006C230020F0B5134903460020496861B1D2
:10421000062B1BD20022042502260124062B06D2DF
:10422000DFE803F006080C120A0F6FF07E00F0BD05
:104230008A7004E08E7002E08E7003E08D70CA70A8
:10424000F0BD8D70CC70F0BD8C70F0BD6FF00100D2
:10425000F0BD00006C230020FEB506460020394C5E
:104260008DF800008DF804008DF808006068A0B398
:1042700005790123C7686A4611212846B847616855
:10428000054601230879CF6801AA1221B8470544E1
:104290006068407940F00C008DF808003046FFF768
:1042A000B1FF054460689DF8041001228778C0784A
:1042B00060F386118DF8041001A9122000F090F827
:1042C000284445B2606841690120884760680078E9
:1042D000012806D0042804D019E0FFE76FF07E0023
:1042E000FEBDA6B99DF80000012220F0E00040F0DC
:1042F00080008DF800006946112000F071F8054437
:10430000012202A93E2000F06BF8284445B29DF836
:104310000000012267F347108DF800006946112064
:1043200000F05EF805446068416901208847012279
:1043300002A93E2000F054F86168284440B20E7093
:10434000FEBD00006C230020F8B5044600208DF867
:1043500000002248406850B1032C0BD0052C09D036
:10436000082C07D00C2C05D06FF00100F8BD6FF0C1
:104370007E00F8BD05790123C6686A460F212846EC
:10438000B0470546032C06D0052C0AD0082C17D0C0
:104390000C2C0DD11BE09DF8000020F00F00C01C7C
:1043A00004E09DF8000020F00F00401D8DF8000093
:1043B000012269460F2000F013F8284440B2F8BDEE
:1043C0009DF8000020F00F0040F00800EEE79DF897
:1043D000000020F00F0040F00C00E7E76C23002005
:1043E0002DE9F0410B4C0746606880B10579134612
:1043F0000A46866839462846B0470546606801780F
:1044000011B14169012088472846BDE8F0816FF06D
:104410007E00FAE76C23002038B5044600208DF8B2
:1044200000000948016859B148780123CD686A46FF
:104430001221A8479DF8001001F00701217038BD36
:104440006FF07E0038BD00007423002038B50446AC
:1044500000208DF800000948016859B1487801230F
:10446000CD686A461021A8479DF8001001F00701A9
:10447000217038BD6FF07E0038BD0000742300202D
:104480007CB504460020009001901448006810B3E9
:1044900045780623C6686A4602212846B0479DF83B
:1044A00000108DF800109DF8012041EA02212180C2
:1044B0009DF802108DF802109DF8032041EA0221B8
:1044C00061809DF804108DF804109DF8052041EAE4
:1044D0000221A1807CBD6FF07E007CBD7423002092
:1044E0002DE9FC410025224E04468DF800508DF840
:1044F0000450306810B390F801C00123C7686A46C1
:1045000011216046B8473168074601234878CE68D4
:1045100001AA1221B047384442B29DF8000005219B
:1045200001EA50109DF804108DF80000C1F38013CB
:10453000C9098DF804102BB1042014E06FF07E003F
:10454000BDE8FC8150EA010306D0012806D0052809
:1045500004D0042804D007E0257005E0012002E023
:1045600021B109B1032020701046E9E70220FAE7E3
:104570007423002038B50021074C8DF80010014647
:1045800020600123CD6840786A460021A847226850
:104590009DF80010117038BD74230020F8B5044652
:1045A0001F4D00208DF8000028680F4690B1467816
:1045B0000123D0F80CC06A4612213046E047064677
:1045C000082C29D2082F14D2DFE807F013131307A1
:1045D0000B0F0B0F6FF07E00F8BD022C0CD80224DD
:1045E0000AE0042C08D8042406E0062C04D806248B
:1045F00002E0012C00D801249DF80000012364F39F
:1046000002008DF8000029686A4648788C681221FB
:10461000A047304440B2F8BD6FF00100F8BD000083
:1046200074230020FEB5044600201C4D8DF80000C8
:104630008DF804008DF80800286848B1082C2AD2AB
:1046400001A8FFF74DFF9DF80400042803D00AE0FD
:104650006FF07E00FEBD02A8FFF7DEFE21469DF84A
:104660000800FFF79BFF296801236A464878CE6857
:104670001021B04706469DF80000012364F30200B4
:104680008DF8000029686A4648788C681021A04798
:10469000304440B2FEBD6FF00100FEBD7423002027
:1046A000F0B585B0064600204A4C8DF800008DF824
:1046B00004008DF808008DF80C008DF810002068BB
:1046C000C8B1052E7DD247780123C5686A461121FD
:1046D0003846A8472168054601234878CF6801AAD3
:1046E0001221B847284445B2052E70D2DFE806F003
:1046F000070C343B48006FF07E0005B0F0BD9DF81C
:10470000000020F0A00005E09DF8000020F0A000CF
:1047100040F020008DF800009DF8040020F080009B
:104720008DF8040020F040008DF808002168012376
:104730006A4648788E681121B047054420680169AF
:10474000012088472168012302AA48788C68122139
:10475000A047284445B23AE09DF8000020F0A000B0
:1047600040F08000D6E79DF8000020F0A00040F067
:1047700080008DF800009DF8040040F08000CFE735
:1047800004A8FFF763FE03A8FFF746FE9DF810108C
:104790009DF80C00FFF702FF2168012301AA487869
:1047A000CE681221B04705449DF8000020F0A0001B
:1047B0008DF800009DF8040020F080008DF80400C2
:1047C00000E002E040F04000AEE76FF0010528464F
:1047D00093E7000074230020F8B50446124D002032
:1047E0008DF800002868C8B1052C1AD2467801233C
:1047F000C7686A460F213046B84706469DF8000054
:10480000012364F302008DF8000029686A464878A5
:104810008C680F21A047304440B2F8BD6FF07E0095
:10482000F8BD6FF00100F8BD7423002010B50446F8
:10483000154814F5805F26D0002924D0134A126849
:10484000D38B002B1FD09803B0FBF1F092F91D1011
:10485000A0F5804010FB00F3DB115943137FDB010F
:1048600010FB03104FF4801101EB602092F912103D
:10487000A03148430013604392F910104013C9005F
:1048800001FA80F000B210BD0080FFFF7823002005
:1048900010B50446154814F5805F26D0002924D0B1
:1048A000134A1268D38B002B1FD09803B0FBF1F092
:1048B00092F91D10A0F5804010FB00F3DB11594365
:1048C000137FDB0110FB03104FF4801101EB60201C
:1048D00092F91310A03148430013604392F911106C
:1048E0004013C90001FA80F000B210BD0080FFFF44
:1048F00078230020F0B50446194814F5804F2CD0D9
:10490000184A1368B3F91650002D28D09A8A002A45
:1049100025D0002923D0DE8B002E20D0B3F91E70C5
:1049200009B2CF1BB3F91860B3F91A3049007E43BE
:104930004A43B610E31A02F50042C6EBC33305EB57
:10494000224193FBF1F2B2F5004F01DB420C05E08E
:10495000824203DC024A521C00E0024610B2F0BD63
:104960000080FFFF78230020F8B5044600208DF872
:1049700000000A48006870B14578012386686A46DD
:104980004B212846B047002804D19DF8001001F0C3
:1049900001012170F8BD6FF07E00F8BD7823002082
:1049A000F8B5104C002100912060012000F096F92C
:1049B00005462068C16803208847216801236A46AC
:1049C00048788E684021B047216805449DF8000072
:1049D000087000F009F84419022000F0A5F92044FD
:1049E00040B2F8BD78230020F8B53F4C002000907D
:1049F000226801235D21507895681032A84722680B
:104A00000546012350785E2196681132B04722682E
:104A1000054401235078642196681232B047226819
:104A2000054401235078652196681332B047226807
:104A3000054401235078712196681C32B0472268E2
:104A4000054401235078702196681D32B0472168D3
:104A50000544022348788E686A466A21B047216877
:104A60000544BDF800008882487802238E686A46B3
:104A70006821B04705449DF800009DF8011002230D
:104A800040EA012021686A46C88248788E686E2113
:104A9000B04705449DF800009DF80110022340EA4C
:104AA000012021686A46088348788E686221B047F1
:104AB00005449DF800009DF80110022340EA012002
:104AC00021686A46488348788E686C21B0479DF813
:104AD0000110284401F07F018DF801102268BDF813
:104AE000001040B2D183F8BD782300202DE9FC41AD
:104AF00004460020009001902548006850B1457898
:104B0000082386686A4642212846B0475FEA0008C3
:104B100004D03BE06FF07E00BDE8FC819DF8000012
:104B2000C0088DF800009DF9011040EA41109DF881
:104B30000210C9088DF802109DF9032041EA4216BF
:104B40009DF8041049088DF804109DF9052041EAEC
:104B5000C2159DF8061001F0010121729DF80610A2
:104B600089088DF806109DF8072041EA821739461A
:104B7000FFF75CFE208039463046FFF789FE6080F3
:104B800039462846FFF7B6FEA080E7804046C3E7D7
:104B900078230020F8B50546104C00208DF8000061
:104BA0002068B8B14678012387686A464C213046B0
:104BB000B84706469DF80000012365F3C5008DF84F
:104BC000000021686A4648784C684C21A047304470
:104BD00040B2F8BD6FF07E00F8BD000078230020E1
:104BE000F8B53D4C00218DF80010216849B158B14D
:104BF00001282AD0022824D003284FD06FF00100CA
:104C0000F8BD6FF07E00F8BD6846FFF7ADFE0546C3
:104C10009DF8000040B9012000F060F8284445B23A
:104C20002068C16803208847216801236A464878C4
:104C30008E684C21B04705449DF8000020F0060026
:104C400020E0002000F04AF8F8BD6846FFF78CFE2F
:104C500005469DF8000040B9012000F03FF82844C7
:104C600045B22068C16803208847216801236A464D
:104C700048788E684C21B04705449DF8000020F02C
:104C80000600801C8DF80000216801236A464878E0
:104C90004C684C21A047284440B2F8BD6846FFF755
:104CA00063FE05469DF8000040B9012000F016F8AB
:104CB000284445B22068C168032088472168012341
:104CC0006A4648788E684C21B04705449DF800003C
:104CD00040F00600D6E7000078230020F8B505462E
:104CE000104C00208DF800002068B8B146780123F0
:104CF00087686A464B213046B84706469DF8000053
:104D0000012365F300008DF8000021686A464878A9
:104D10004C684B21A047304440B2F8BD6FF07E0094
:104D2000F8BD00007823002010B5012808D0022823
:104D300010D0032818D0042820D06FF0010010BD37
:104D40000020FFF727FF0446012000F025F8044467
:104D500002201CE00020FFF71DFF0446042000F0A5
:104D60001BF804440E2012E00520FFF713FF044651
:104D7000172000F011F80444522008E00020FFF74B
:104D800009FF0446072000F007F804441A2000F049
:104D900019F8204440B210BD38B500218DF800103C
:104DA0000749096841B18DF80000487801234C6833
